{
  "_format": "hh-sol-artifact-1",
  "contractName": "Exchange",
  "sourceName": "src/contracts/Exchange.sol",
  "abi": [
    {
      "inputs": [],
      "stateMutability": "nonpayable",
      "type": "constructor"
    },
    {
      "anonymous": false,
      "inputs": [
        {
          "indexed": false,
          "internalType": "address",
          "name": "user",
          "type": "address"
        },
        {
          "indexed": false,
          "internalType": "address",
          "name": "token",
          "type": "address"
        },
        {
          "indexed": false,
          "internalType": "uint256",
          "name": "amount",
          "type": "uint256"
        },
        {
          "indexed": false,
          "internalType": "uint256",
          "name": "balance",
          "type": "uint256"
        }
      ],
      "name": "Deposit",
      "type": "event"
    },
    {
      "anonymous": false,
      "inputs": [
        {
          "indexed": false,
          "internalType": "uint256",
          "name": "id",
          "type": "uint256"
        },
        {
          "indexed": false,
          "internalType": "address",
          "name": "user",
          "type": "address"
        },
        {
          "indexed": false,
          "internalType": "address",
          "name": "tokenGet",
          "type": "address"
        },
        {
          "indexed": false,
          "internalType": "uint256",
          "name": "amountGet",
          "type": "uint256"
        },
        {
          "indexed": false,
          "internalType": "address",
          "name": "tokenGive",
          "type": "address"
        },
        {
          "indexed": false,
          "internalType": "uint256",
          "name": "amountGive",
          "type": "uint256"
        },
        {
          "indexed": false,
          "internalType": "uint256",
          "name": "timestamp",
          "type": "uint256"
        }
      ],
      "name": "OrderCreated",
      "type": "event"
    },
    {
      "anonymous": false,
      "inputs": [
        {
          "indexed": false,
          "internalType": "uint256",
          "name": "id",
          "type": "uint256"
        },
        {
          "indexed": false,
          "internalType": "address",
          "name": "user",
          "type": "address"
        },
        {
          "indexed": false,
          "internalType": "address",
          "name": "tokenGet",
          "type": "address"
        },
        {
          "indexed": false,
          "internalType": "uint256",
          "name": "amountGet",
          "type": "uint256"
        },
        {
          "indexed": false,
          "internalType": "address",
          "name": "tokenGive",
          "type": "address"
        },
        {
          "indexed": false,
          "internalType": "uint256",
          "name": "amountGive",
          "type": "uint256"
        },
        {
          "indexed": false,
          "internalType": "address",
          "name": "creator",
          "type": "address"
        },
        {
          "indexed": false,
          "internalType": "uint256",
          "name": "timestamp",
          "type": "uint256"
        }
      ],
      "name": "OrderFulfilled",
      "type": "event"
    },
    {
      "anonymous": false,
      "inputs": [
        {
          "indexed": true,
          "internalType": "address",
          "name": "previousOwner",
          "type": "address"
        },
        {
          "indexed": true,
          "internalType": "address",
          "name": "newOwner",
          "type": "address"
        }
      ],
      "name": "OwnershipTransferred",
      "type": "event"
    },
    {
      "anonymous": false,
      "inputs": [
        {
          "indexed": false,
          "internalType": "address",
          "name": "user",
          "type": "address"
        },
        {
          "indexed": false,
          "internalType": "address",
          "name": "token",
          "type": "address"
        },
        {
          "indexed": false,
          "internalType": "uint256",
          "name": "amount",
          "type": "uint256"
        },
        {
          "indexed": false,
          "internalType": "uint256",
          "name": "balance",
          "type": "uint256"
        }
      ],
      "name": "Withdraw",
      "type": "event"
    },
    {
      "inputs": [],
      "name": "PERCENT_DIVIDER",
      "outputs": [
        {
          "internalType": "uint256",
          "name": "",
          "type": "uint256"
        }
      ],
      "stateMutability": "view",
      "type": "function"
    },
    {
      "inputs": [
        {
          "internalType": "address",
          "name": "_token",
          "type": "address"
        }
      ],
      "name": "addSupportedToken",
      "outputs": [],
      "stateMutability": "nonpayable",
      "type": "function"
    },
    {
      "inputs": [
        {
          "internalType": "uint256",
          "name": "_id",
          "type": "uint256"
        }
      ],
      "name": "cancelOrder",
      "outputs": [],
      "stateMutability": "nonpayable",
      "type": "function"
    },
    {
      "inputs": [
        {
          "internalType": "address",
          "name": "_tokenGet",
          "type": "address"
        },
        {
          "internalType": "uint256",
          "name": "_amountGet",
          "type": "uint256"
        },
        {
          "internalType": "address",
          "name": "_tokenGive",
          "type": "address"
        },
        {
          "internalType": "uint256",
          "name": "_amountGive",
          "type": "uint256"
        }
      ],
      "name": "createOrder",
      "outputs": [],
      "stateMutability": "nonpayable",
      "type": "function"
    },
    {
      "inputs": [
        {
          "internalType": "address",
          "name": "_token",
          "type": "address"
        },
        {
          "internalType": "uint256",
          "name": "_amount",
          "type": "uint256"
        }
      ],
      "name": "depositToken",
      "outputs": [],
      "stateMutability": "nonpayable",
      "type": "function"
    },
    {
      "inputs": [],
      "name": "feePercent",
      "outputs": [
        {
          "internalType": "uint256",
          "name": "",
          "type": "uint256"
        }
      ],
      "stateMutability": "view",
      "type": "function"
    },
    {
      "inputs": [
        {
          "internalType": "uint256",
          "name": "_id",
          "type": "uint256"
        }
      ],
      "name": "fillOrder",
      "outputs": [],
      "stateMutability": "nonpayable",
      "type": "function"
    },
    {
      "inputs": [
        {
          "internalType": "address",
          "name": "_user",
          "type": "address"
        },
        {
          "internalType": "address",
          "name": "_token",
          "type": "address"
        }
      ],
      "name": "getBalance",
      "outputs": [
        {
          "internalType": "uint256",
          "name": "",
          "type": "uint256"
        }
      ],
      "stateMutability": "view",
      "type": "function"
    },
    {
      "inputs": [],
      "name": "orderCount",
      "outputs": [
        {
          "internalType": "uint256",
          "name": "",
          "type": "uint256"
        }
      ],
      "stateMutability": "view",
      "type": "function"
    },
    {
      "inputs": [
        {
          "internalType": "uint256",
          "name": "",
          "type": "uint256"
        }
      ],
      "name": "orders",
      "outputs": [
        {
          "internalType": "uint256",
          "name": "id",
          "type": "uint256"
        },
        {
          "internalType": "address",
          "name": "user",
          "type": "address"
        },
        {
          "internalType": "address",
          "name": "tokenGet",
          "type": "address"
        },
        {
          "internalType": "uint256",
          "name": "amountGet",
          "type": "uint256"
        },
        {
          "internalType": "address",
          "name": "tokenGive",
          "type": "address"
        },
        {
          "internalType": "uint256",
          "name": "amountGive",
          "type": "uint256"
        },
        {
          "internalType": "uint256",
          "name": "timestamp",
          "type": "uint256"
        },
        {
          "internalType": "bool",
          "name": "fulfilled",
          "type": "bool"
        }
      ],
      "stateMutability": "view",
      "type": "function"
    },
    {
      "inputs": [],
      "name": "owner",
      "outputs": [
        {
          "internalType": "address",
          "name": "",
          "type": "address"
        }
      ],
      "stateMutability": "view",
      "type": "function"
    },
    {
      "inputs": [
        {
          "internalType": "address",
          "name": "_token",
          "type": "address"
        }
      ],
      "name": "removeSupportedToken",
      "outputs": [],
      "stateMutability": "nonpayable",
      "type": "function"
    },
    {
      "inputs": [],
      "name": "renounceOwnership",
      "outputs": [],
      "stateMutability": "nonpayable",
      "type": "function"
    },
    {
      "inputs": [
        {
          "internalType": "address",
          "name": "",
          "type": "address"
        }
      ],
      "name": "supportedTokens",
      "outputs": [
        {
          "internalType": "bool",
          "name": "",
          "type": "bool"
        }
      ],
      "stateMutability": "view",
      "type": "function"
    },
    {
      "inputs": [
        {
          "internalType": "address",
          "name": "",
          "type": "address"
        },
        {
          "internalType": "address",
          "name": "",
          "type": "address"
        }
      ],
      "name": "tokenBalances",
      "outputs": [
        {
          "internalType": "uint256",
          "name": "",
          "type": "uint256"
        }
      ],
      "stateMutability": "view",
      "type": "function"
    },
    {
      "inputs": [
        {
          "internalType": "address",
          "name": "newOwner",
          "type": "address"
        }
      ],
      "name": "transferOwnership",
      "outputs": [],
      "stateMutability": "nonpayable",
      "type": "function"
    },
    {
      "inputs": [
        {
          "internalType": "address",
          "name": "_token",
          "type": "address"
        },
        {
          "internalType": "uint256",
          "name": "_amount",
          "type": "uint256"
        }
      ],
      "name": "withdrawToken",
      "outputs": [],
      "stateMutability": "nonpayable",
      "type": "function"
    }
  ],
  "bytecode": "0x608060405260036002553480156200001657600080fd5b50620000376200002b6200004460201b60201c565b6200004c60201b60201c565b6001808190555062000110565b600033905090565b60008060009054906101000a900473ffffffffffffffffffffffffffffffffffffffff169050816000806101000a81548173ffffffffffffffffffffffffffffffffffffffff021916908373ffffffffffffffffffffffffffffffffffffffff1602179055508173ffffffffffffffffffffffffffffffffffffffff168173ffffffffffffffffffffffffffffffffffffffff167f8be0079c531659141344cd1fd0a4f28419497f9722a3daafe3b4186f6b6457e060405160405180910390a35050565b6126e180620001206000396000f3fe608060405234801561001057600080fd5b506004361061010b5760003560e01c8063715018a6116100a25780639e281a98116100715780639e281a981461027e578063a85c38ef1461029a578063d4fac45d146102d1578063f2fde38b14610301578063fc05ca311461031d5761010b565b8063715018a61461021c57806376319190146102265780637fd6f15c146102425780638da5cb5b146102605761010b565b8063514fcac7116100de578063514fcac71461019857806367b830ad146101b457806368c4ac26146101d05780636d69fcaf146102005761010b565b80632453ffa81461011057806329fc7bd81461012e578063338b5dea1461014c5780634dbf6c5a14610168575b600080fd5b610118610339565b6040516101259190612044565b60405180910390f35b61013661033f565b6040516101439190612044565b60405180910390f35b61016660048036038101906101619190611ae4565b610345565b005b610182600480360381019061017d9190611aa8565b6105f4565b60405161018f9190612044565b60405180910390f35b6101b260048036038101906101ad9190611bac565b610619565b005b6101ce60048036038101906101c99190611bac565b610786565b005b6101ea60048036038101906101e59190611a7f565b610e4e565b6040516101f79190611e89565b60405180910390f35b61021a60048036038101906102159190611a7f565b610e6e565b005b610224610ed1565b005b610240600480360381019061023b9190611a7f565b610ee5565b005b61024a610f48565b6040516102579190612044565b60405180910390f35b610268610f4e565b6040516102759190611dc9565b60405180910390f35b61029860048036038101906102939190611ae4565b610f77565b005b6102b460048036038101906102af9190611bac565b611267565b6040516102c898979695949392919061214c565b60405180910390f35b6102eb60048036038101906102e69190611aa8565b61131c565b6040516102f89190612044565b60405180910390f35b61031b60048036038101906103169190611a7f565b6113a3565b005b61033760048036038101906103329190611b20565b611427565b005b60065481565b6103e881565b600360008373ffffffffffffffffffffffffffffffffffffffff1673ffffffffffffffffffffffffffffffffffffffff16815260200190815260200160002060009054906101000a900460ff166103d1576040517f08c379a00000000000000000000000000000000000000000000000000000000081526004016103c890611f64565b60405180910390fd5b60008111610414576040517f08c379a000000000000000000000000000000000000000000000000000000000815260040161040b90611ee4565b60405180910390fd5b8173ffffffffffffffffffffffffffffffffffffffff166323b872dd3330846040518463ffffffff1660e01b815260040161045193929190611de4565b602060405180830381600087803b15801561046b57600080fd5b505af115801561047f573d6000803e3d6000fd5b505050506040513d601f19601f820116820180604052508101906104a39190611b83565b5080600460003373ffffffffffffffffffffffffffffffffffffffff1673ffffffffffffffffffffffffffffffffffffffff16815260200190815260200160002060008473ffffffffffffffffffffffffffffffffffffffff1673ffffffffffffffffffffffffffffffffffffffff168152602001908152602001600020600082825461053091906121db565b925050819055507fdcbc1c05240f31ff3ad067ef1ee35ce4997762752e3a095284754544f4c709d7338383600460003373ffffffffffffffffffffffffffffffffffffffff1673ffffffffffffffffffffffffffffffffffffffff16815260200190815260200160002060008773ffffffffffffffffffffffffffffffffffffffff1673ffffffffffffffffffffffffffffffffffffffff168152602001908152602001600020546040516105e89493929190611e1b565b60405180910390a15050565b6004602052816000526040600020602052806000526040600020600091509150505481565b60008111801561062b57506006548111155b61066a576040517f08c379a000000000000000000000000000000000000000000000000000000000815260040161066190611fa4565b60405180910390fd5b60006005600083815260200190815260200160002090503373ffffffffffffffffffffffffffffffffffffffff168160010160009054906101000a900473ffffffffffffffffffffffffffffffffffffffff1673ffffffffffffffffffffffffffffffffffffffff1614610713576040517f08c379a000000000000000000000000000000000000000000000000000000000815260040161070a90612024565b60405180910390fd5b8060070160009054906101000a900460ff1615610765576040517f08c379a000000000000000000000000000000000000000000000000000000000815260040161075c90611ea4565b60405180910390fd5b60018160070160006101000a81548160ff0219169083151502179055505050565b61078e61189d565b6000811180156107a057506006548111155b6107df576040517f08c379a00000000000000000000000000000000000000000000000000000000081526004016107d690611fa4565b60405180910390fd5b6005600082815260200190815260200160002060070160009054906101000a900460ff1615610843576040517f08c379a000000000000000000000000000000000000000000000000000000000815260040161083a90611ea4565b60405180910390fd5b60006005600083815260200190815260200160002090508060030154600460003373ffffffffffffffffffffffffffffffffffffffff1673ffffffffffffffffffffffffffffffffffffffff16815260200190815260200160002060008360020160009054906101000a900473ffffffffffffffffffffffffffffffffffffffff1673ffffffffffffffffffffffffffffffffffffffff1673ffffffffffffffffffffffffffffffffffffffff168152602001908152602001600020541015610941576040517f08c379a000000000000000000000000000000000000000000000000000000000815260040161093890611f04565b60405180910390fd5b60006103e860025483600301546109589190612262565b6109629190612231565b9050600081836003015461097691906122bc565b90508260030154600460003373ffffffffffffffffffffffffffffffffffffffff1673ffffffffffffffffffffffffffffffffffffffff16815260200190815260200160002060008560020160009054906101000a900473ffffffffffffffffffffffffffffffffffffffff1673ffffffffffffffffffffffffffffffffffffffff1673ffffffffffffffffffffffffffffffffffffffff1681526020019081526020016000206000828254610a2c91906122bc565b9250508190555080600460008560010160009054906101000a900473ffffffffffffffffffffffffffffffffffffffff1673ffffffffffffffffffffffffffffffffffffffff1673ffffffffffffffffffffffffffffffffffffffff16815260200190815260200160002060008560020160009054906101000a900473ffffffffffffffffffffffffffffffffffffffff1673ffffffffffffffffffffffffffffffffffffffff1673ffffffffffffffffffffffffffffffffffffffff1681526020019081526020016000206000828254610b0791906121db565b925050819055508160046000610b1b610f4e565b73ffffffffffffffffffffffffffffffffffffffff1673ffffffffffffffffffffffffffffffffffffffff16815260200190815260200160002060008560020160009054906101000a900473ffffffffffffffffffffffffffffffffffffffff1673ffffffffffffffffffffffffffffffffffffffff1673ffffffffffffffffffffffffffffffffffffffff1681526020019081526020016000206000828254610bc591906121db565b925050819055508260050154600460008560010160009054906101000a900473ffffffffffffffffffffffffffffffffffffffff1673ffffffffffffffffffffffffffffffffffffffff1673ffffffffffffffffffffffffffffffffffffffff16815260200190815260200160002060008560040160009054906101000a900473ffffffffffffffffffffffffffffffffffffffff1673ffffffffffffffffffffffffffffffffffffffff1673ffffffffffffffffffffffffffffffffffffffff1681526020019081526020016000206000828254610ca491906122bc565b925050819055508260050154600460003373ffffffffffffffffffffffffffffffffffffffff1673ffffffffffffffffffffffffffffffffffffffff16815260200190815260200160002060008560040160009054906101000a900473ffffffffffffffffffffffffffffffffffffffff1673ffffffffffffffffffffffffffffffffffffffff1673ffffffffffffffffffffffffffffffffffffffff1681526020019081526020016000206000828254610d5f91906121db565b9250508190555060018360070160006101000a81548160ff0219169083151502179055507f38256ad8169a189926bec435e6c1ca96e018d5e71cbe8089b0f6f90521bcc7c98360000154338560020160009054906101000a900473ffffffffffffffffffffffffffffffffffffffff1686600301548760040160009054906101000a900473ffffffffffffffffffffffffffffffffffffffff1688600501548960010160009054906101000a900473ffffffffffffffffffffffffffffffffffffffff1642604051610e3898979695949392919061205f565b60405180910390a1505050610e4b6118ed565b50565b60036020528060005260406000206000915054906101000a900460ff1681565b610e766118f6565b6001600360008373ffffffffffffffffffffffffffffffffffffffff1673ffffffffffffffffffffffffffffffffffffffff16815260200190815260200160002060006101000a81548160ff02191690831515021790555050565b610ed96118f6565b610ee36000611974565b565b610eed6118f6565b6000600360008373ffffffffffffffffffffffffffffffffffffffff1673ffffffffffffffffffffffffffffffffffffffff16815260200190815260200160002060006101000a81548160ff02191690831515021790555050565b60025481565b60008060009054906101000a900473ffffffffffffffffffffffffffffffffffffffff16905090565b610f7f61189d565b60008111610fc2576040517f08c379a0000000000000000000000000000000000000000000000000000000008152600401610fb990611ee4565b60405180910390fd5b80600460003373ffffffffffffffffffffffffffffffffffffffff1673ffffffffffffffffffffffffffffffffffffffff16815260200190815260200160002060008473ffffffffffffffffffffffffffffffffffffffff1673ffffffffffffffffffffffffffffffffffffffff168152602001908152602001600020541015611081576040517f08c379a000000000000000000000000000000000000000000000000000000000815260040161107890611f04565b60405180910390fd5b80600460003373ffffffffffffffffffffffffffffffffffffffff1673ffffffffffffffffffffffffffffffffffffffff16815260200190815260200160002060008473ffffffffffffffffffffffffffffffffffffffff1673ffffffffffffffffffffffffffffffffffffffff168152602001908152602001600020600082825461110d91906122bc565b925050819055508173ffffffffffffffffffffffffffffffffffffffff1663a9059cbb33836040518363ffffffff1660e01b815260040161114f929190611e60565b602060405180830381600087803b15801561116957600080fd5b505af115801561117d573d6000803e3d6000fd5b505050506040513d601f19601f820116820180604052508101906111a19190611b83565b507ff341246adaac6f497bc2a656f546ab9e182111d630394f0c57c710a59a2cb567338383600460003373ffffffffffffffffffffffffffffffffffffffff1673ffffffffffffffffffffffffffffffffffffffff16815260200190815260200160002060008773ffffffffffffffffffffffffffffffffffffffff1673ffffffffffffffffffffffffffffffffffffffff168152602001908152602001600020546040516112539493929190611e1b565b60405180910390a16112636118ed565b5050565b60056020528060005260406000206000915090508060000154908060010160009054906101000a900473ffffffffffffffffffffffffffffffffffffffff16908060020160009054906101000a900473ffffffffffffffffffffffffffffffffffffffff16908060030154908060040160009054906101000a900473ffffffffffffffffffffffffffffffffffffffff16908060050154908060060154908060070160009054906101000a900460ff16905088565b6000600460008473ffffffffffffffffffffffffffffffffffffffff1673ffffffffffffffffffffffffffffffffffffffff16815260200190815260200160002060008373ffffffffffffffffffffffffffffffffffffffff1673ffffffffffffffffffffffffffffffffffffffff16815260200190815260200160002054905092915050565b6113ab6118f6565b600073ffffffffffffffffffffffffffffffffffffffff168173ffffffffffffffffffffffffffffffffffffffff16141561141b576040517f08c379a000000000000000000000000000000000000000000000000000000000815260040161141290611ec4565b60405180910390fd5b61142481611974565b50565b600360008573ffffffffffffffffffffffffffffffffffffffff1673ffffffffffffffffffffffffffffffffffffffff16815260200190815260200160002060009054906101000a900460ff166114b3576040517f08c379a00000000000000000000000000000000000000000000000000000000081526004016114aa90611f84565b60405180910390fd5b600360008373ffffffffffffffffffffffffffffffffffffffff1673ffffffffffffffffffffffffffffffffffffffff16815260200190815260200160002060009054906101000a900460ff1661153f576040517f08c379a000000000000000000000000000000000000000000000000000000000815260040161153690611f24565b60405180910390fd5b60008311611582576040517f08c379a000000000000000000000000000000000000000000000000000000000815260040161157990611fe4565b60405180910390fd5b600081116115c5576040517f08c379a00000000000000000000000000000000000000000000000000000000081526004016115bc90611fc4565b60405180910390fd5b80600460003373ffffffffffffffffffffffffffffffffffffffff1673ffffffffffffffffffffffffffffffffffffffff16815260200190815260200160002060008473ffffffffffffffffffffffffffffffffffffffff1673ffffffffffffffffffffffffffffffffffffffff168152602001908152602001600020541015611684576040517f08c379a000000000000000000000000000000000000000000000000000000000815260040161167b90611f04565b60405180910390fd5b6006600081548092919061169790612338565b919050555060405180610100016040528060065481526020013373ffffffffffffffffffffffffffffffffffffffff1681526020018573ffffffffffffffffffffffffffffffffffffffff1681526020018481526020018373ffffffffffffffffffffffffffffffffffffffff168152602001828152602001428152602001600015158152506005600060065481526020019081526020016000206000820151816000015560208201518160010160006101000a81548173ffffffffffffffffffffffffffffffffffffffff021916908373ffffffffffffffffffffffffffffffffffffffff16021790555060408201518160020160006101000a81548173ffffffffffffffffffffffffffffffffffffffff021916908373ffffffffffffffffffffffffffffffffffffffff1602179055506060820151816003015560808201518160040160006101000a81548173ffffffffffffffffffffffffffffffffffffffff021916908373ffffffffffffffffffffffffffffffffffffffff16021790555060a0820151816005015560c0820151816006015560e08201518160070160006101000a81548160ff0219169083151502179055509050507ff4e94e11847dd5a076a1f8bc24ec98dfa58292de438d62656742b833fe022ec060065433868686864260405161188f97969594939291906120dd565b60405180910390a150505050565b600260015414156118e3576040517f08c379a00000000000000000000000000000000000000000000000000000000081526004016118da90612004565b60405180910390fd5b6002600181905550565b60018081905550565b6118fe611a38565b73ffffffffffffffffffffffffffffffffffffffff1661191c610f4e565b73ffffffffffffffffffffffffffffffffffffffff1614611972576040517f08c379a000000000000000000000000000000000000000000000000000000000815260040161196990611f44565b60405180910390fd5b565b60008060009054906101000a900473ffffffffffffffffffffffffffffffffffffffff169050816000806101000a81548173ffffffffffffffffffffffffffffffffffffffff021916908373ffffffffffffffffffffffffffffffffffffffff1602179055508173ffffffffffffffffffffffffffffffffffffffff168173ffffffffffffffffffffffffffffffffffffffff167f8be0079c531659141344cd1fd0a4f28419497f9722a3daafe3b4186f6b6457e060405160405180910390a35050565b600033905090565b600081359050611a4f81612666565b92915050565b600081519050611a648161267d565b92915050565b600081359050611a7981612694565b92915050565b600060208284031215611a9157600080fd5b6000611a9f84828501611a40565b91505092915050565b60008060408385031215611abb57600080fd5b6000611ac985828601611a40565b9250506020611ada85828601611a40565b9150509250929050565b60008060408385031215611af757600080fd5b6000611b0585828601611a40565b9250506020611b1685828601611a6a565b9150509250929050565b60008060008060808587031215611b3657600080fd5b6000611b4487828801611a40565b9450506020611b5587828801611a6a565b9350506040611b6687828801611a40565b9250506060611b7787828801611a6a565b91505092959194509250565b600060208284031215611b9557600080fd5b6000611ba384828501611a55565b91505092915050565b600060208284031215611bbe57600080fd5b6000611bcc84828501611a6a565b91505092915050565b611bde816122f0565b82525050565b611bed81612302565b82525050565b6000611c006017836121ca565b9150611c0b826123df565b602082019050919050565b6000611c236026836121ca565b9150611c2e82612408565b604082019050919050565b6000611c46601d836121ca565b9150611c5182612457565b602082019050919050565b6000611c696014836121ca565b9150611c7482612480565b602082019050919050565b6000611c8c6018836121ca565b9150611c97826124a9565b602082019050919050565b6000611caf6020836121ca565b9150611cba826124d2565b602082019050919050565b6000611cd26013836121ca565b9150611cdd826124fb565b602082019050919050565b6000611cf56017836121ca565b9150611d0082612524565b602082019050919050565b6000611d186010836121ca565b9150611d238261254d565b602082019050919050565b6000611d3b6022836121ca565b9150611d4682612576565b604082019050919050565b6000611d5e6021836121ca565b9150611d69826125c5565b604082019050919050565b6000611d81601f836121ca565b9150611d8c82612614565b602082019050919050565b6000611da4600e836121ca565b9150611daf8261263d565b602082019050919050565b611dc38161232e565b82525050565b6000602082019050611dde6000830184611bd5565b92915050565b6000606082019050611df96000830186611bd5565b611e066020830185611bd5565b611e136040830184611dba565b949350505050565b6000608082019050611e306000830187611bd5565b611e3d6020830186611bd5565b611e4a6040830185611dba565b611e576060830184611dba565b95945050505050565b6000604082019050611e756000830185611bd5565b611e826020830184611dba565b9392505050565b6000602082019050611e9e6000830184611be4565b92915050565b60006020820190508181036000830152611ebd81611bf3565b9050919050565b60006020820190508181036000830152611edd81611c16565b9050919050565b60006020820190508181036000830152611efd81611c39565b9050919050565b60006020820190508181036000830152611f1d81611c5c565b9050919050565b60006020820190508181036000830152611f3d81611c7f565b9050919050565b60006020820190508181036000830152611f5d81611ca2565b9050919050565b60006020820190508181036000830152611f7d81611cc5565b9050919050565b60006020820190508181036000830152611f9d81611ce8565b9050919050565b60006020820190508181036000830152611fbd81611d0b565b9050919050565b60006020820190508181036000830152611fdd81611d2e565b9050919050565b60006020820190508181036000830152611ffd81611d51565b9050919050565b6000602082019050818103600083015261201d81611d74565b9050919050565b6000602082019050818103600083015261203d81611d97565b9050919050565b60006020820190506120596000830184611dba565b92915050565b600061010082019050612075600083018b611dba565b612082602083018a611bd5565b61208f6040830189611bd5565b61209c6060830188611dba565b6120a96080830187611bd5565b6120b660a0830186611dba565b6120c360c0830185611bd5565b6120d060e0830184611dba565b9998505050505050505050565b600060e0820190506120f2600083018a611dba565b6120ff6020830189611bd5565b61210c6040830188611bd5565b6121196060830187611dba565b6121266080830186611bd5565b61213360a0830185611dba565b61214060c0830184611dba565b98975050505050505050565b600061010082019050612162600083018b611dba565b61216f602083018a611bd5565b61217c6040830189611bd5565b6121896060830188611dba565b6121966080830187611bd5565b6121a360a0830186611dba565b6121b060c0830185611dba565b6121bd60e0830184611be4565b9998505050505050505050565b600082825260208201905092915050565b60006121e68261232e565b91506121f18361232e565b9250827fffffffffffffffffffffffffffffffffffffffffffffffffffffffffffffffff0382111561222657612225612381565b5b828201905092915050565b600061223c8261232e565b91506122478361232e565b925082612257576122566123b0565b5b828204905092915050565b600061226d8261232e565b91506122788361232e565b9250817fffffffffffffffffffffffffffffffffffffffffffffffffffffffffffffffff04831182151516156122b1576122b0612381565b5b828202905092915050565b60006122c78261232e565b91506122d28361232e565b9250828210156122e5576122e4612381565b5b828203905092915050565b60006122fb8261230e565b9050919050565b60008115159050919050565b600073ffffffffffffffffffffffffffffffffffffffff82169050919050565b6000819050919050565b60006123438261232e565b91507fffffffffffffffffffffffffffffffffffffffffffffffffffffffffffffffff82141561237657612375612381565b5b600182019050919050565b7f4e487b7100000000000000000000000000000000000000000000000000000000600052601160045260246000fd5b7f4e487b7100000000000000000000000000000000000000000000000000000000600052601260045260246000fd5b7f4f7264657220616c72656164792066756c66696c6c6564000000000000000000600082015250565b7f4f776e61626c653a206e6577206f776e657220697320746865207a65726f206160008201527f6464726573730000000000000000000000000000000000000000000000000000602082015250565b7f416d6f756e74206d7573742062652067726561746572207468616e2030000000600082015250565b7f496e73756666696369656e742062616c616e6365000000000000000000000000600082015250565b7f546f6b656e2047697665206e6f7420737570706f727465640000000000000000600082015250565b7f4f776e61626c653a2063616c6c6572206973206e6f7420746865206f776e6572600082015250565b7f546f6b656e206e6f7420737570706f7274656400000000000000000000000000600082015250565b7f546f6b656e20476574206e6f7420737570706f72746564000000000000000000600082015250565b7f496e76616c6964206f7264657220494400000000000000000000000000000000600082015250565b7f416d6f756e742047697665206d7573742062652067726561746572207468616e60008201527f2030000000000000000000000000000000000000000000000000000000000000602082015250565b7f416d6f756e7420476574206d7573742062652067726561746572207468616e2060008201527f3000000000000000000000000000000000000000000000000000000000000000602082015250565b7f5265656e7472616e637947756172643a207265656e7472616e742063616c6c00600082015250565b7f4e6f7420796f7572206f72646572000000000000000000000000000000000000600082015250565b61266f816122f0565b811461267a57600080fd5b50565b61268681612302565b811461269157600080fd5b50565b61269d8161232e565b81146126a857600080fd5b5056fea264697066735822122095999ecea7e1fbebe2334aae7b9badcaea167d19d22e1f163ac8e433a5b1c80a64736f6c63430008040033",
  "linkReferences": {},
  "deployedLinkReferences": {}
}