{
  "_format": "hh-sol-artifact-1",
  "contractName": "ArtMarketplace",
  "sourceName": "src/contracts/ArtMarketplace.sol",
  "abi": [
    {
      "inputs": [
        {
          "internalType": "address",
          "name": "_paymentToken",
          "type": "address"
        }
      ],
      "stateMutability": "nonpayable",
      "type": "constructor"
    },
    {
      "anonymous": false,
      "inputs": [
        {
          "indexed": false,
          "internalType": "uint256",
          "name": "id",
          "type": "uint256"
        },
        {
          "indexed": false,
          "internalType": "address",
          "name": "creator",
          "type": "address"
        },
        {
          "indexed": false,
          "internalType": "string",
          "name": "title",
          "type": "string"
        },
        {
          "indexed": false,
          "internalType": "string",
          "name": "imageURI",
          "type": "string"
        },
        {
          "indexed": false,
          "internalType": "bool",
          "name": "isForSale",
          "type": "bool"
        },
        {
          "indexed": false,
          "internalType": "uint256",
          "name": "price",
          "type": "uint256"
        }
      ],
      "name": "ArtworkCreated",
      "type": "event"
    },
    {
      "anonymous": false,
      "inputs": [
        {
          "indexed": false,
          "internalType": "uint256",
          "name": "id",
          "type": "uint256"
        },
        {
          "indexed": false,
          "internalType": "address",
          "name": "seller",
          "type": "address"
        },
        {
          "indexed": false,
          "internalType": "address",
          "name": "buyer",
          "type": "address"
        },
        {
          "indexed": false,
          "internalType": "uint256",
          "name": "price",
          "type": "uint256"
        },
        {
          "indexed": false,
          "internalType": "uint256",
          "name": "fee",
          "type": "uint256"
        }
      ],
      "name": "ArtworkSold",
      "type": "event"
    },
    {
      "anonymous": false,
      "inputs": [
        {
          "indexed": false,
          "internalType": "uint256",
          "name": "id",
          "type": "uint256"
        },
        {
          "indexed": false,
          "internalType": "string",
          "name": "title",
          "type": "string"
        },
        {
          "indexed": false,
          "internalType": "string",
          "name": "description",
          "type": "string"
        },
        {
          "indexed": false,
          "internalType": "bool",
          "name": "isForSale",
          "type": "bool"
        },
        {
          "indexed": false,
          "internalType": "uint256",
          "name": "price",
          "type": "uint256"
        }
      ],
      "name": "ArtworkUpdated",
      "type": "event"
    },
    {
      "anonymous": false,
      "inputs": [
        {
          "indexed": true,
          "internalType": "address",
          "name": "previousOwner",
          "type": "address"
        },
        {
          "indexed": true,
          "internalType": "address",
          "name": "newOwner",
          "type": "address"
        }
      ],
      "name": "OwnershipTransferred",
      "type": "event"
    },
    {
      "anonymous": false,
      "inputs": [
        {
          "indexed": false,
          "internalType": "address",
          "name": "user",
          "type": "address"
        },
        {
          "indexed": false,
          "internalType": "string",
          "name": "username",
          "type": "string"
        }
      ],
      "name": "UserRegistered",
      "type": "event"
    },
    {
      "anonymous": false,
      "inputs": [
        {
          "indexed": false,
          "internalType": "address",
          "name": "user",
          "type": "address"
        },
        {
          "indexed": false,
          "internalType": "string",
          "name": "username",
          "type": "string"
        }
      ],
      "name": "UserUpdated",
      "type": "event"
    },
    {
      "inputs": [],
      "name": "PERCENT_DIVIDER",
      "outputs": [
        {
          "internalType": "uint256",
          "name": "",
          "type": "uint256"
        }
      ],
      "stateMutability": "view",
      "type": "function"
    },
    {
      "inputs": [],
      "name": "artworkCount",
      "outputs": [
        {
          "internalType": "uint256",
          "name": "",
          "type": "uint256"
        }
      ],
      "stateMutability": "view",
      "type": "function"
    },
    {
      "inputs": [
        {
          "internalType": "uint256",
          "name": "",
          "type": "uint256"
        }
      ],
      "name": "artworks",
      "outputs": [
        {
          "internalType": "uint256",
          "name": "id",
          "type": "uint256"
        },
        {
          "internalType": "address",
          "name": "creator",
          "type": "address"
        },
        {
          "internalType": "string",
          "name": "title",
          "type": "string"
        },
        {
          "internalType": "string",
          "name": "description",
          "type": "string"
        },
        {
          "internalType": "string",
          "name": "imageURI",
          "type": "string"
        },
        {
          "internalType": "bool",
          "name": "isForSale",
          "type": "bool"
        },
        {
          "internalType": "uint256",
          "name": "price",
          "type": "uint256"
        },
        {
          "internalType": "address",
          "name": "nftContract",
          "type": "address"
        },
        {
          "internalType": "uint256",
          "name": "tokenId",
          "type": "uint256"
        },
        {
          "internalType": "bool",
          "name": "exists",
          "type": "bool"
        }
      ],
      "stateMutability": "view",
      "type": "function"
    },
    {
      "inputs": [
        {
          "internalType": "uint256",
          "name": "_artworkId",
          "type": "uint256"
        }
      ],
      "name": "buyArtwork",
      "outputs": [],
      "stateMutability": "nonpayable",
      "type": "function"
    },
    {
      "inputs": [
        {
          "internalType": "string",
          "name": "_title",
          "type": "string"
        },
        {
          "internalType": "string",
          "name": "_description",
          "type": "string"
        },
        {
          "internalType": "string",
          "name": "_imageURI",
          "type": "string"
        },
        {
          "internalType": "bool",
          "name": "_isForSale",
          "type": "bool"
        },
        {
          "internalType": "uint256",
          "name": "_price",
          "type": "uint256"
        },
        {
          "internalType": "address",
          "name": "_nftContract",
          "type": "address"
        },
        {
          "internalType": "uint256",
          "name": "_tokenId",
          "type": "uint256"
        }
      ],
      "name": "createArtwork",
      "outputs": [],
      "stateMutability": "nonpayable",
      "type": "function"
    },
    {
      "inputs": [],
      "name": "feePercent",
      "outputs": [
        {
          "internalType": "uint256",
          "name": "",
          "type": "uint256"
        }
      ],
      "stateMutability": "view",
      "type": "function"
    },
    {
      "inputs": [
        {
          "internalType": "uint256",
          "name": "_artworkId",
          "type": "uint256"
        }
      ],
      "name": "getArtworkDetails",
      "outputs": [
        {
          "internalType": "uint256",
          "name": "id",
          "type": "uint256"
        },
        {
          "internalType": "address",
          "name": "creator",
          "type": "address"
        },
        {
          "internalType": "string",
          "name": "title",
          "type": "string"
        },
        {
          "internalType": "string",
          "name": "description",
          "type": "string"
        },
        {
          "internalType": "string",
          "name": "imageURI",
          "type": "string"
        },
        {
          "internalType": "bool",
          "name": "isForSale",
          "type": "bool"
        },
        {
          "internalType": "uint256",
          "name": "price",
          "type": "uint256"
        },
        {
          "internalType": "address",
          "name": "nftContract",
          "type": "address"
        },
        {
          "internalType": "uint256",
          "name": "tokenId",
          "type": "uint256"
        }
      ],
      "stateMutability": "view",
      "type": "function"
    },
    {
      "inputs": [
        {
          "internalType": "address",
          "name": "_user",
          "type": "address"
        }
      ],
      "name": "getUserArtworks",
      "outputs": [
        {
          "internalType": "uint256[]",
          "name": "",
          "type": "uint256[]"
        }
      ],
      "stateMutability": "view",
      "type": "function"
    },
    {
      "inputs": [],
      "name": "owner",
      "outputs": [
        {
          "internalType": "address",
          "name": "",
          "type": "address"
        }
      ],
      "stateMutability": "view",
      "type": "function"
    },
    {
      "inputs": [],
      "name": "paymentToken",
      "outputs": [
        {
          "internalType": "address",
          "name": "",
          "type": "address"
        }
      ],
      "stateMutability": "view",
      "type": "function"
    },
    {
      "inputs": [
        {
          "internalType": "string",
          "name": "_username",
          "type": "string"
        },
        {
          "internalType": "string",
          "name": "_profileImage",
          "type": "string"
        },
        {
          "internalType": "string",
          "name": "_bio",
          "type": "string"
        }
      ],
      "name": "registerUser",
      "outputs": [],
      "stateMutability": "nonpayable",
      "type": "function"
    },
    {
      "inputs": [],
      "name": "renounceOwnership",
      "outputs": [],
      "stateMutability": "nonpayable",
      "type": "function"
    },
    {
      "inputs": [
        {
          "internalType": "uint256",
          "name": "_feePercent",
          "type": "uint256"
        }
      ],
      "name": "setFeePercent",
      "outputs": [],
      "stateMutability": "nonpayable",
      "type": "function"
    },
    {
      "inputs": [
        {
          "internalType": "address",
          "name": "_paymentToken",
          "type": "address"
        }
      ],
      "name": "setPaymentToken",
      "outputs": [],
      "stateMutability": "nonpayable",
      "type": "function"
    },
    {
      "inputs": [
        {
          "internalType": "address",
          "name": "newOwner",
          "type": "address"
        }
      ],
      "name": "transferOwnership",
      "outputs": [],
      "stateMutability": "nonpayable",
      "type": "function"
    },
    {
      "inputs": [
        {
          "internalType": "uint256",
          "name": "_artworkId",
          "type": "uint256"
        },
        {
          "internalType": "string",
          "name": "_title",
          "type": "string"
        },
        {
          "internalType": "string",
          "name": "_description",
          "type": "string"
        },
        {
          "internalType": "bool",
          "name": "_isForSale",
          "type": "bool"
        },
        {
          "internalType": "uint256",
          "name": "_price",
          "type": "uint256"
        }
      ],
      "name": "updateArtwork",
      "outputs": [],
      "stateMutability": "nonpayable",
      "type": "function"
    },
    {
      "inputs": [
        {
          "internalType": "string",
          "name": "_username",
          "type": "string"
        },
        {
          "internalType": "string",
          "name": "_profileImage",
          "type": "string"
        },
        {
          "internalType": "string",
          "name": "_bio",
          "type": "string"
        }
      ],
      "name": "updateUserProfile",
      "outputs": [],
      "stateMutability": "nonpayable",
      "type": "function"
    },
    {
      "inputs": [
        {
          "internalType": "address",
          "name": "",
          "type": "address"
        },
        {
          "internalType": "uint256",
          "name": "",
          "type": "uint256"
        }
      ],
      "name": "userArtworks",
      "outputs": [
        {
          "internalType": "uint256",
          "name": "",
          "type": "uint256"
        }
      ],
      "stateMutability": "view",
      "type": "function"
    },
    {
      "inputs": [
        {
          "internalType": "address",
          "name": "",
          "type": "address"
        }
      ],
      "name": "users",
      "outputs": [
        {
          "internalType": "string",
          "name": "username",
          "type": "string"
        },
        {
          "internalType": "string",
          "name": "profileImage",
          "type": "string"
        },
        {
          "internalType": "string",
          "name": "bio",
          "type": "string"
        },
        {
          "internalType": "bool",
          "name": "isRegistered",
          "type": "bool"
        }
      ],
      "stateMutability": "view",
      "type": "function"
    }
  ],
  "bytecode": "0x608060405260196002553480156200001657600080fd5b50604051620034583803806200345883398181016040528101906200003c91906200018e565b6200005c62000050620000ab60201b60201c565b620000b360201b60201c565b6001808190555080600360006101000a81548173ffffffffffffffffffffffffffffffffffffffff021916908373ffffffffffffffffffffffffffffffffffffffff1602179055505062000208565b600033905090565b60008060009054906101000a900473ffffffffffffffffffffffffffffffffffffffff169050816000806101000a81548173ffffffffffffffffffffffffffffffffffffffff021916908373ffffffffffffffffffffffffffffffffffffffff1602179055508173ffffffffffffffffffffffffffffffffffffffff168173ffffffffffffffffffffffffffffffffffffffff167f8be0079c531659141344cd1fd0a4f28419497f9722a3daafe3b4186f6b6457e060405160405180910390a35050565b6000815190506200018881620001ee565b92915050565b600060208284031215620001a157600080fd5b6000620001b18482850162000177565b91505092915050565b6000620001c782620001ce565b9050919050565b600073ffffffffffffffffffffffffffffffffffffffff82169050919050565b620001f981620001ba565b81146200020557600080fd5b50565b61324080620002186000396000f3fe608060405234801561001057600080fd5b50600436106101215760003560e01c80637fd6f15c116100ad578063cb80e5a311610071578063cb80e5a3146102ee578063cb9b31f914610326578063d637dcfa14610356578063e44c3c4b14610372578063f2fde38b1461038e57610121565b80637fd6f15c146102455780638da5cb5b14610263578063a087644514610281578063a87430ba1461029f578063bace0290146102d257610121565b80634b602673116100f45780634b602673146101ae5780636a326ab1146101e7578063715018a61461020357806376816f2a1461020d5780637ce3489b1461022957610121565b8063241890551461012657806329fc7bd8146101425780633013ce29146101605780633f6f5b891461017e575b600080fd5b610140600480360381019061013b9190612395565b6103aa565b005b61014a610566565b604051610157919061298c565b60405180910390f35b61016861056c565b60405161017591906126ee565b60405180910390f35b6101986004803603810190610193919061218a565b610592565b6040516101a5919061298c565b60405180910390f35b6101c860048036038101906101c3919061236c565b6105c3565b6040516101de9a99989796959493929190612b0b565b60405180910390f35b61020160048036038101906101fc9190612138565b610809565b005b61020b610855565b005b61022760048036038101906102229190612286565b610869565b005b610243600480360381019061023e919061236c565b610d53565b005b61024d610d65565b60405161025a919061298c565b60405180910390f35b61026b610d6b565b60405161027891906126ee565b60405180910390f35b610289610d94565b604051610296919061298c565b60405180910390f35b6102b960048036038101906102b49190612138565b610d9a565b6040516102c99493929190612792565b60405180910390f35b6102ec60048036038101906102e791906121ef565b610f6f565b005b6103086004803603810190610303919061236c565b6110cb565b60405161031d99989796959493929190612a69565b60405180910390f35b610340600480360381019061033b9190612138565b611445565b60405161034d9190612770565b60405180910390f35b610370600480360381019061036b91906121ef565b6114dc565b005b61038c6004803603810190610387919061236c565b6116cb565b005b6103a860048036038101906103a39190612138565b611bfa565b005b6005600086815260200190815260200160002060090160009054906101000a900460ff1661040d576040517f08c379a0000000000000000000000000000000000000000000000000000000008152600401610404906127ec565b60405180910390fd5b3373ffffffffffffffffffffffffffffffffffffffff166005600087815260200190815260200160002060010160009054906101000a900473ffffffffffffffffffffffffffffffffffffffff1673ffffffffffffffffffffffffffffffffffffffff16146104b1576040517f08c379a00000000000000000000000000000000000000000000000000000000081526004016104a89061280c565b60405180910390fd5b6000600560008781526020019081526020016000209050848160020190805190602001906104e0929190611fc4565b50838160030190805190602001906104f9929190611fc4565b50828160050160006101000a81548160ff0219169083151502179055508181600601819055507f57760e37ef4a769f1d6c8bc1e9c7c4df041b23b078af25db18e91e69bd7ae7b68686868686604051610556959493929190612bbc565b60405180910390a1505050505050565b6103e881565b600360009054906101000a900473ffffffffffffffffffffffffffffffffffffffff1681565b600760205281600052604060002081815481106105ae57600080fd5b90600052602060002001600091509150505481565b60056020528060005260406000206000915090508060000154908060010160009054906101000a900473ffffffffffffffffffffffffffffffffffffffff169080600201805461061290612e11565b80601f016020809104026020016040519081016040528092919081815260200182805461063e90612e11565b801561068b5780601f106106605761010080835404028352916020019161068b565b820191906000526020600020905b81548152906001019060200180831161066e57829003601f168201915b5050505050908060030180546106a090612e11565b80601f01602080910402602001604051908101604052809291908181526020018280546106cc90612e11565b80156107195780601f106106ee57610100808354040283529160200191610719565b820191906000526020600020905b8154815290600101906020018083116106fc57829003601f168201915b50505050509080600401805461072e90612e11565b80601f016020809104026020016040519081016040528092919081815260200182805461075a90612e11565b80156107a75780601f1061077c576101008083540402835291602001916107a7565b820191906000526020600020905b81548152906001019060200180831161078a57829003601f168201915b5050505050908060050160009054906101000a900460ff16908060060154908060070160009054906101000a900473ffffffffffffffffffffffffffffffffffffffff16908060080154908060090160009054906101000a900460ff1690508a565b610811611c7e565b80600360006101000a81548173ffffffffffffffffffffffffffffffffffffffff021916908373ffffffffffffffffffffffffffffffffffffffff16021790555050565b61085d611c7e565b6108676000611cfc565b565b600460003373ffffffffffffffffffffffffffffffffffffffff1673ffffffffffffffffffffffffffffffffffffffff16815260200190815260200160002060030160009054906101000a900460ff166108f8576040517f08c379a00000000000000000000000000000000000000000000000000000000081526004016108ef9061288c565b60405180910390fd5b600087511161093c576040517f08c379a0000000000000000000000000000000000000000000000000000000008152600401610933906128cc565b60405180910390fd5b6000855111610980576040517f08c379a00000000000000000000000000000000000000000000000000000000081526004016109779061290c565b60405180910390fd5b600073ffffffffffffffffffffffffffffffffffffffff168273ffffffffffffffffffffffffffffffffffffffff1614610aab573373ffffffffffffffffffffffffffffffffffffffff168273ffffffffffffffffffffffffffffffffffffffff16636352211e836040518263ffffffff1660e01b8152600401610a04919061298c565b60206040518083038186803b158015610a1c57600080fd5b505afa158015610a30573d6000803e3d6000fd5b505050506040513d601f19601f82011682018060405250810190610a549190612161565b73ffffffffffffffffffffffffffffffffffffffff1614610aaa576040517f08c379a0000000000000000000000000000000000000000000000000000000008152600401610aa1906128ec565b60405180910390fd5b5b60066000815480929190610abe90612e74565b9190505550600060405180610140016040528060065481526020013373ffffffffffffffffffffffffffffffffffffffff16815260200189815260200188815260200187815260200186151581526020018581526020018473ffffffffffffffffffffffffffffffffffffffff168152602001838152602001600115158152509050806005600060065481526020019081526020016000206000820151816000015560208201518160010160006101000a81548173ffffffffffffffffffffffffffffffffffffffff021916908373ffffffffffffffffffffffffffffffffffffffff1602179055506040820151816002019080519060200190610bc3929190611fc4565b506060820151816003019080519060200190610be0929190611fc4565b506080820151816004019080519060200190610bfd929190611fc4565b5060a08201518160050160006101000a81548160ff02191690831515021790555060c0820151816006015560e08201518160070160006101000a81548173ffffffffffffffffffffffffffffffffffffffff021916908373ffffffffffffffffffffffffffffffffffffffff16021790555061010082015181600801556101208201518160090160006101000a81548160ff021916908315150217905550905050600760003373ffffffffffffffffffffffffffffffffffffffff1673ffffffffffffffffffffffffffffffffffffffff16815260200190815260200160002060065490806001815401808255809150506001900390600052602060002001600090919091909150557f602a9c63e40a13ebac0d5d098af45b3d6d821d64c6d3248b304db4962b6edb0f600654338a898989604051610d41969594939291906129fa565b60405180910390a15050505050505050565b610d5b611c7e565b8060028190555050565b60025481565b60008060009054906101000a900473ffffffffffffffffffffffffffffffffffffffff16905090565b60065481565b6004602052806000526040600020600091509050806000018054610dbd90612e11565b80601f0160208091040260200160405190810160405280929190818152602001828054610de990612e11565b8015610e365780601f10610e0b57610100808354040283529160200191610e36565b820191906000526020600020905b815481529060010190602001808311610e1957829003601f168201915b505050505090806001018054610e4b90612e11565b80601f0160208091040260200160405190810160405280929190818152602001828054610e7790612e11565b8015610ec45780601f10610e9957610100808354040283529160200191610ec4565b820191906000526020600020905b815481529060010190602001808311610ea757829003601f168201915b505050505090806002018054610ed990612e11565b80601f0160208091040260200160405190810160405280929190818152602001828054610f0590612e11565b8015610f525780601f10610f2757610100808354040283529160200191610f52565b820191906000526020600020905b815481529060010190602001808311610f3557829003601f168201915b5050505050908060030160009054906101000a900460ff16905084565b600460003373ffffffffffffffffffffffffffffffffffffffff1673ffffffffffffffffffffffffffffffffffffffff16815260200190815260200160002060030160009054906101000a900460ff16610ffe576040517f08c379a0000000000000000000000000000000000000000000000000000000008152600401610ff59061288c565b60405180910390fd5b6000600460003373ffffffffffffffffffffffffffffffffffffffff1673ffffffffffffffffffffffffffffffffffffffff168152602001908152602001600020905083816000019080519060200190611059929190611fc4565b5082816001019080519060200190611072929190611fc4565b508181600201908051906020019061108b929190611fc4565b507fd6136f3cad7c60bfc24bbf1548f39f766ca8bce104bf9adde3deb6237dec51df33856040516110bd929190612740565b60405180910390a150505050565b60008060608060606000806000806000600560008c815260200190815260200160002060405180610140016040529081600082015481526020016001820160009054906101000a900473ffffffffffffffffffffffffffffffffffffffff1673ffffffffffffffffffffffffffffffffffffffff1673ffffffffffffffffffffffffffffffffffffffff16815260200160028201805461116a90612e11565b80601f016020809104026020016040519081016040528092919081815260200182805461119690612e11565b80156111e35780601f106111b8576101008083540402835291602001916111e3565b820191906000526020600020905b8154815290600101906020018083116111c657829003601f168201915b505050505081526020016003820180546111fc90612e11565b80601f016020809104026020016040519081016040528092919081815260200182805461122890612e11565b80156112755780601f1061124a57610100808354040283529160200191611275565b820191906000526020600020905b81548152906001019060200180831161125857829003601f168201915b5050505050815260200160048201805461128e90612e11565b80601f01602080910402602001604051908101604052809291908181526020018280546112ba90612e11565b80156113075780601f106112dc57610100808354040283529160200191611307565b820191906000526020600020905b8154815290600101906020018083116112ea57829003601f168201915b505050505081526020016005820160009054906101000a900460ff16151515158152602001600682015481526020016007820160009054906101000a900473ffffffffffffffffffffffffffffffffffffffff1673ffffffffffffffffffffffffffffffffffffffff1673ffffffffffffffffffffffffffffffffffffffff168152602001600882015481526020016009820160009054906101000a900460ff16151515158152505090508061012001516113f7576040517f08c379a00000000000000000000000000000000000000000000000000000000081526004016113ee906127ec565b60405180910390fd5b806000015181602001518260400151836060015184608001518560a001518660c001518760e00151886101000151995099509950995099509950995099509950509193959799909294969850565b6060600760008373ffffffffffffffffffffffffffffffffffffffff1673ffffffffffffffffffffffffffffffffffffffff1681526020019081526020016000208054806020026020016040519081016040528092919081815260200182805480156114d057602002820191906000526020600020905b8154815260200190600101908083116114bc575b50505050509050919050565b600460003373ffffffffffffffffffffffffffffffffffffffff1673ffffffffffffffffffffffffffffffffffffffff16815260200190815260200160002060030160009054906101000a900460ff161561156c576040517f08c379a00000000000000000000000000000000000000000000000000000000081526004016115639061294c565b60405180910390fd5b60008351116115b0576040517f08c379a00000000000000000000000000000000000000000000000000000000081526004016115a79061282c565b60405180910390fd5b604051806080016040528084815260200183815260200182815260200160011515815250600460003373ffffffffffffffffffffffffffffffffffffffff1673ffffffffffffffffffffffffffffffffffffffff168152602001908152602001600020600082015181600001908051906020019061162f929190611fc4565b50602082015181600101908051906020019061164c929190611fc4565b506040820151816002019080519060200190611669929190611fc4565b5060608201518160030160006101000a81548160ff0219169083151502179055509050507f48cac28ad4dc618e15f4c2dd5e97751182f166de97b25618318b2112aa951a2f33846040516116be929190612740565b60405180910390a1505050565b6116d3611dc0565b60006005600083815260200190815260200160002090508060090160009054906101000a900460ff1661173b576040517f08c379a0000000000000000000000000000000000000000000000000000000008152600401611732906127ec565b60405180910390fd5b8060050160009054906101000a900460ff1661178c576040517f08c379a00000000000000000000000000000000000000000000000000000000081526004016117839061284c565b60405180910390fd5b3373ffffffffffffffffffffffffffffffffffffffff168160010160009054906101000a900473ffffffffffffffffffffffffffffffffffffffff1673ffffffffffffffffffffffffffffffffffffffff16141561181f576040517f08c379a0000000000000000000000000000000000000000000000000000000008152600401611816906128ac565b60405180910390fd5b60008160060154905060008260010160009054906101000a900473ffffffffffffffffffffffffffffffffffffffff16905060006103e8600254846118649190612cf9565b61186e9190612cc8565b90506000818461187e9190612d53565b9050600360009054906101000a900473ffffffffffffffffffffffffffffffffffffffff1673ffffffffffffffffffffffffffffffffffffffff166323b872dd3385846040518463ffffffff1660e01b81526004016118df93929190612709565b602060405180830381600087803b1580156118f957600080fd5b505af115801561190d573d6000803e3d6000fd5b505050506040513d601f19601f8201168201806040525081019061193191906121c6565b50600360009054906101000a900473ffffffffffffffffffffffffffffffffffffffff1673ffffffffffffffffffffffffffffffffffffffff166323b872dd33611979610d6b565b856040518463ffffffff1660e01b815260040161199893929190612709565b602060405180830381600087803b1580156119b257600080fd5b505af11580156119c6573d6000803e3d6000fd5b505050506040513d601f19601f820116820180604052508101906119ea91906121c6565b50600073ffffffffffffffffffffffffffffffffffffffff168560070160009054906101000a900473ffffffffffffffffffffffffffffffffffffffff1673ffffffffffffffffffffffffffffffffffffffff1614611b8e578460070160009054906101000a900473ffffffffffffffffffffffffffffffffffffffff1673ffffffffffffffffffffffffffffffffffffffff166323b872dd843388600801546040518463ffffffff1660e01b8152600401611aa893929190612709565b600060405180830381600087803b158015611ac257600080fd5b505af1158015611ad6573d6000803e3d6000fd5b50505050338560010160006101000a81548173ffffffffffffffffffffffffffffffffffffffff021916908373ffffffffffffffffffffffffffffffffffffffff160217905550611b278387611e10565b600760003373ffffffffffffffffffffffffffffffffffffffff1673ffffffffffffffffffffffffffffffffffffffff1681526020019081526020016000208690806001815401808255809150506001900390600052602060002001600090919091909150555b60008560050160006101000a81548160ff0219169083151502179055507f2bb483489024be5a92c644f861d3f727da055bc0a926a166d8d8c0bbab4254dc8684338786604051611be29594939291906129a7565b60405180910390a15050505050611bf7611fb3565b50565b611c02611c7e565b600073ffffffffffffffffffffffffffffffffffffffff168173ffffffffffffffffffffffffffffffffffffffff161415611c72576040517f08c379a0000000000000000000000000000000000000000000000000000000008152600401611c699061286c565b60405180910390fd5b611c7b81611cfc565b50565b611c86611fbc565b73ffffffffffffffffffffffffffffffffffffffff16611ca4610d6b565b73ffffffffffffffffffffffffffffffffffffffff1614611cfa576040517f08c379a0000000000000000000000000000000000000000000000000000000008152600401611cf19061292c565b60405180910390fd5b565b60008060009054906101000a900473ffffffffffffffffffffffffffffffffffffffff169050816000806101000a81548173ffffffffffffffffffffffffffffffffffffffff021916908373ffffffffffffffffffffffffffffffffffffffff1602179055508173ffffffffffffffffffffffffffffffffffffffff168173ffffffffffffffffffffffffffffffffffffffff167f8be0079c531659141344cd1fd0a4f28419497f9722a3daafe3b4186f6b6457e060405160405180910390a35050565b60026001541415611e06576040517f08c379a0000000000000000000000000000000000000000000000000000000008152600401611dfd9061296c565b60405180910390fd5b6002600181905550565b6000600760008473ffffffffffffffffffffffffffffffffffffffff1673ffffffffffffffffffffffffffffffffffffffff168152602001908152602001600020905060005b8180549050811015611fad5782828281548110611e9c577f4e487b7100000000000000000000000000000000000000000000000000000000600052603260045260246000fd5b90600052602060002001541415611f9a578160018380549050611ebf9190612d53565b81548110611ef6577f4e487b7100000000000000000000000000000000000000000000000000000000600052603260045260246000fd5b9060005260206000200154828281548110611f3a577f4e487b7100000000000000000000000000000000000000000000000000000000600052603260045260246000fd5b906000526020600020018190555081805480611f7f577f4e487b7100000000000000000000000000000000000000000000000000000000600052603160045260246000fd5b60019003818190600052602060002001600090559055611fad565b8080611fa590612e74565b915050611e56565b50505050565b60018081905550565b600033905090565b828054611fd090612e11565b90600052602060002090601f016020900481019282611ff25760008555612039565b82601f1061200b57805160ff1916838001178555612039565b82800160010185558215612039579182015b8281111561203857825182559160200191906001019061201d565b5b509050612046919061204a565b5090565b5b8082111561206357600081600090555060010161204b565b5090565b600061207a61207584612c42565b612c1d565b90508281526020810184848401111561209257600080fd5b61209d848285612dcf565b509392505050565b6000813590506120b4816131c5565b92915050565b6000815190506120c9816131c5565b92915050565b6000813590506120de816131dc565b92915050565b6000815190506120f3816131dc565b92915050565b600082601f83011261210a57600080fd5b813561211a848260208601612067565b91505092915050565b600081359050612132816131f3565b92915050565b60006020828403121561214a57600080fd5b6000612158848285016120a5565b91505092915050565b60006020828403121561217357600080fd5b6000612181848285016120ba565b91505092915050565b6000806040838503121561219d57600080fd5b60006121ab858286016120a5565b92505060206121bc85828601612123565b9150509250929050565b6000602082840312156121d857600080fd5b60006121e6848285016120e4565b91505092915050565b60008060006060848603121561220457600080fd5b600084013567ffffffffffffffff81111561221e57600080fd5b61222a868287016120f9565b935050602084013567ffffffffffffffff81111561224757600080fd5b612253868287016120f9565b925050604084013567ffffffffffffffff81111561227057600080fd5b61227c868287016120f9565b9150509250925092565b600080600080600080600060e0888a0312156122a157600080fd5b600088013567ffffffffffffffff8111156122bb57600080fd5b6122c78a828b016120f9565b975050602088013567ffffffffffffffff8111156122e457600080fd5b6122f08a828b016120f9565b965050604088013567ffffffffffffffff81111561230d57600080fd5b6123198a828b016120f9565b955050606061232a8a828b016120cf565b945050608061233b8a828b01612123565b93505060a061234c8a828b016120a5565b92505060c061235d8a828b01612123565b91505092959891949750929550565b60006020828403121561237e57600080fd5b600061238c84828501612123565b91505092915050565b600080600080600060a086880312156123ad57600080fd5b60006123bb88828901612123565b955050602086013567ffffffffffffffff8111156123d857600080fd5b6123e4888289016120f9565b945050604086013567ffffffffffffffff81111561240157600080fd5b61240d888289016120f9565b935050606061241e888289016120cf565b925050608061242f88828901612123565b9150509295509295909350565b600061244883836126d0565b60208301905092915050565b61245d81612d87565b82525050565b600061246e82612c83565b6124788185612ca6565b935061248383612c73565b8060005b838110156124b457815161249b888261243c565b97506124a683612c99565b925050600181019050612487565b5085935050505092915050565b6124ca81612d99565b82525050565b60006124db82612c8e565b6124e58185612cb7565b93506124f5818560208601612dde565b6124fe81612f79565b840191505092915050565b6000612516601683612cb7565b915061252182612f8a565b602082019050919050565b6000612539600f83612cb7565b915061254482612fb3565b602082019050919050565b600061255c601883612cb7565b915061256782612fdc565b602082019050919050565b600061257f601483612cb7565b915061258a82613005565b602082019050919050565b60006125a2602683612cb7565b91506125ad8261302e565b604082019050919050565b60006125c5601383612cb7565b91506125d08261307d565b602082019050919050565b60006125e8601b83612cb7565b91506125f3826130a6565b602082019050919050565b600061260b601583612cb7565b9150612616826130cf565b602082019050919050565b600061262e601483612cb7565b9150612639826130f8565b602082019050919050565b6000612651601983612cb7565b915061265c82613121565b602082019050919050565b6000612674602083612cb7565b915061267f8261314a565b602082019050919050565b6000612697601783612cb7565b91506126a282613173565b602082019050919050565b60006126ba601f83612cb7565b91506126c58261319c565b602082019050919050565b6126d981612dc5565b82525050565b6126e881612dc5565b82525050565b60006020820190506127036000830184612454565b92915050565b600060608201905061271e6000830186612454565b61272b6020830185612454565b61273860408301846126df565b949350505050565b60006040820190506127556000830185612454565b818103602083015261276781846124d0565b90509392505050565b6000602082019050818103600083015261278a8184612463565b905092915050565b600060808201905081810360008301526127ac81876124d0565b905081810360208301526127c081866124d0565b905081810360408301526127d481856124d0565b90506127e360608301846124c1565b95945050505050565b6000602082019050818103600083015261280581612509565b9050919050565b600060208201905081810360008301526128258161252c565b9050919050565b600060208201905081810360008301526128458161254f565b9050919050565b6000602082019050818103600083015261286581612572565b9050919050565b6000602082019050818103600083015261288581612595565b9050919050565b600060208201905081810360008301526128a5816125b8565b9050919050565b600060208201905081810360008301526128c5816125db565b9050919050565b600060208201905081810360008301526128e5816125fe565b9050919050565b6000602082019050818103600083015261290581612621565b9050919050565b6000602082019050818103600083015261292581612644565b9050919050565b6000602082019050818103600083015261294581612667565b9050919050565b600060208201905081810360008301526129658161268a565b9050919050565b60006020820190508181036000830152612985816126ad565b9050919050565b60006020820190506129a160008301846126df565b92915050565b600060a0820190506129bc60008301886126df565b6129c96020830187612454565b6129d66040830186612454565b6129e360608301856126df565b6129f060808301846126df565b9695505050505050565b600060c082019050612a0f60008301896126df565b612a1c6020830188612454565b8181036040830152612a2e81876124d0565b90508181036060830152612a4281866124d0565b9050612a5160808301856124c1565b612a5e60a08301846126df565b979650505050505050565b600061012082019050612a7f600083018c6126df565b612a8c602083018b612454565b8181036040830152612a9e818a6124d0565b90508181036060830152612ab281896124d0565b90508181036080830152612ac681886124d0565b9050612ad560a08301876124c1565b612ae260c08301866126df565b612aef60e0830185612454565b612afd6101008301846126df565b9a9950505050505050505050565b600061014082019050612b21600083018d6126df565b612b2e602083018c612454565b8181036040830152612b40818b6124d0565b90508181036060830152612b54818a6124d0565b90508181036080830152612b6881896124d0565b9050612b7760a08301886124c1565b612b8460c08301876126df565b612b9160e0830186612454565b612b9f6101008301856126df565b612bad6101208301846124c1565b9b9a5050505050505050505050565b600060a082019050612bd160008301886126df565b8181036020830152612be381876124d0565b90508181036040830152612bf781866124d0565b9050612c0660608301856124c1565b612c1360808301846126df565b9695505050505050565b6000612c27612c38565b9050612c338282612e43565b919050565b6000604051905090565b600067ffffffffffffffff821115612c5d57612c5c612f4a565b5b612c6682612f79565b9050602081019050919050565b6000819050602082019050919050565b600081519050919050565b600081519050919050565b6000602082019050919050565b600082825260208201905092915050565b600082825260208201905092915050565b6000612cd382612dc5565b9150612cde83612dc5565b925082612cee57612ced612eec565b5b828204905092915050565b6000612d0482612dc5565b9150612d0f83612dc5565b9250817fffffffffffffffffffffffffffffffffffffffffffffffffffffffffffffffff0483118215151615612d4857612d47612ebd565b5b828202905092915050565b6000612d5e82612dc5565b9150612d6983612dc5565b925082821015612d7c57612d7b612ebd565b5b828203905092915050565b6000612d9282612da5565b9050919050565b60008115159050919050565b600073ffffffffffffffffffffffffffffffffffffffff82169050919050565b6000819050919050565b82818337600083830152505050565b60005b83811015612dfc578082015181840152602081019050612de1565b83811115612e0b576000848401525b50505050565b60006002820490506001821680612e2957607f821691505b60208210811415612e3d57612e3c612f1b565b5b50919050565b612e4c82612f79565b810181811067ffffffffffffffff82111715612e6b57612e6a612f4a565b5b80604052505050565b6000612e7f82612dc5565b91507fffffffffffffffffffffffffffffffffffffffffffffffffffffffffffffffff821415612eb257612eb1612ebd565b5b600182019050919050565b7f4e487b7100000000000000000000000000000000000000000000000000000000600052601160045260246000fd5b7f4e487b7100000000000000000000000000000000000000000000000000000000600052601260045260246000fd5b7f4e487b7100000000000000000000000000000000000000000000000000000000600052602260045260246000fd5b7f4e487b7100000000000000000000000000000000000000000000000000000000600052604160045260246000fd5b6000601f19601f8301169050919050565b7f417274776f726b20646f6573206e6f7420657869737400000000000000000000600082015250565b7f4e6f74207468652063726561746f720000000000000000000000000000000000600082015250565b7f557365726e616d652063616e6e6f7420626520656d7074790000000000000000600082015250565b7f417274776f726b206e6f7420666f722073616c65000000000000000000000000600082015250565b7f4f776e61626c653a206e6577206f776e657220697320746865207a65726f206160008201527f6464726573730000000000000000000000000000000000000000000000000000602082015250565b7f55736572206e6f74207265676973746572656400000000000000000000000000600082015250565b7f43616e6e6f742062757920796f7572206f776e20617274776f726b0000000000600082015250565b7f5469746c652063616e6e6f7420626520656d7074790000000000000000000000600082015250565b7f4e6f7420746865206f776e6572206f66204e4654000000000000000000000000600082015250565b7f496d616765205552492063616e6e6f7420626520656d70747900000000000000600082015250565b7f4f776e61626c653a2063616c6c6572206973206e6f7420746865206f776e6572600082015250565b7f5573657220616c72656164792072656769737465726564000000000000000000600082015250565b7f5265656e7472616e637947756172643a207265656e7472616e742063616c6c00600082015250565b6131ce81612d87565b81146131d957600080fd5b50565b6131e581612d99565b81146131f057600080fd5b50565b6131fc81612dc5565b811461320757600080fd5b5056fea2646970667358221220def21572320a3bdf0f2819907f2967769f2fc6fab9a0ff217672a1d5a31f504c64736f6c63430008040033",
  "linkReferences": {},
  "deployedLinkReferences": {}
}