{
  "_format": "hh-sol-artifact-1",
  "contractName": "ArtNFT",
  "sourceName": "src/contracts/ArtNFT.sol",
  "abi": [
    {
      "inputs": [],
      "stateMutability": "nonpayable",
      "type": "constructor"
    },
    {
      "anonymous": false,
      "inputs": [
        {
          "indexed": true,
          "internalType": "address",
          "name": "owner",
          "type": "address"
        },
        {
          "indexed": true,
          "internalType": "address",
          "name": "approved",
          "type": "address"
        },
        {
          "indexed": true,
          "internalType": "uint256",
          "name": "tokenId",
          "type": "uint256"
        }
      ],
      "name": "Approval",
      "type": "event"
    },
    {
      "anonymous": false,
      "inputs": [
        {
          "indexed": true,
          "internalType": "address",
          "name": "owner",
          "type": "address"
        },
        {
          "indexed": true,
          "internalType": "address",
          "name": "operator",
          "type": "address"
        },
        {
          "indexed": false,
          "internalType": "bool",
          "name": "approved",
          "type": "bool"
        }
      ],
      "name": "ApprovalForAll",
      "type": "event"
    },
    {
      "anonymous": false,
      "inputs": [
        {
          "indexed": false,
          "internalType": "uint256",
          "name": "tokenId",
          "type": "uint256"
        },
        {
          "indexed": false,
          "internalType": "address",
          "name": "creator",
          "type": "address"
        },
        {
          "indexed": false,
          "internalType": "string",
          "name": "tokenURI",
          "type": "string"
        }
      ],
      "name": "ArtworkMinted",
      "type": "event"
    },
    {
      "anonymous": false,
      "inputs": [
        {
          "indexed": false,
          "internalType": "uint256",
          "name": "_fromTokenId",
          "type": "uint256"
        },
        {
          "indexed": false,
          "internalType": "uint256",
          "name": "_toTokenId",
          "type": "uint256"
        }
      ],
      "name": "BatchMetadataUpdate",
      "type": "event"
    },
    {
      "anonymous": false,
      "inputs": [
        {
          "indexed": false,
          "internalType": "uint256",
          "name": "_tokenId",
          "type": "uint256"
        }
      ],
      "name": "MetadataUpdate",
      "type": "event"
    },
    {
      "anonymous": false,
      "inputs": [
        {
          "indexed": true,
          "internalType": "address",
          "name": "previousOwner",
          "type": "address"
        },
        {
          "indexed": true,
          "internalType": "address",
          "name": "newOwner",
          "type": "address"
        }
      ],
      "name": "OwnershipTransferred",
      "type": "event"
    },
    {
      "anonymous": false,
      "inputs": [
        {
          "indexed": true,
          "internalType": "address",
          "name": "from",
          "type": "address"
        },
        {
          "indexed": true,
          "internalType": "address",
          "name": "to",
          "type": "address"
        },
        {
          "indexed": true,
          "internalType": "uint256",
          "name": "tokenId",
          "type": "uint256"
        }
      ],
      "name": "Transfer",
      "type": "event"
    },
    {
      "inputs": [
        {
          "internalType": "address",
          "name": "to",
          "type": "address"
        },
        {
          "internalType": "uint256",
          "name": "tokenId",
          "type": "uint256"
        }
      ],
      "name": "approve",
      "outputs": [],
      "stateMutability": "nonpayable",
      "type": "function"
    },
    {
      "inputs": [
        {
          "internalType": "address",
          "name": "owner",
          "type": "address"
        }
      ],
      "name": "balanceOf",
      "outputs": [
        {
          "internalType": "uint256",
          "name": "",
          "type": "uint256"
        }
      ],
      "stateMutability": "view",
      "type": "function"
    },
    {
      "inputs": [
        {
          "internalType": "uint256",
          "name": "tokenId",
          "type": "uint256"
        }
      ],
      "name": "getApproved",
      "outputs": [
        {
          "internalType": "address",
          "name": "",
          "type": "address"
        }
      ],
      "stateMutability": "view",
      "type": "function"
    },
    {
      "inputs": [
        {
          "internalType": "address",
          "name": "owner",
          "type": "address"
        },
        {
          "internalType": "address",
          "name": "operator",
          "type": "address"
        }
      ],
      "name": "isApprovedForAll",
      "outputs": [
        {
          "internalType": "bool",
          "name": "",
          "type": "bool"
        }
      ],
      "stateMutability": "view",
      "type": "function"
    },
    {
      "inputs": [],
      "name": "marketplaceAddress",
      "outputs": [
        {
          "internalType": "address",
          "name": "",
          "type": "address"
        }
      ],
      "stateMutability": "view",
      "type": "function"
    },
    {
      "inputs": [
        {
          "internalType": "string",
          "name": "_tokenURI",
          "type": "string"
        }
      ],
      "name": "mintArtwork",
      "outputs": [
        {
          "internalType": "uint256",
          "name": "",
          "type": "uint256"
        }
      ],
      "stateMutability": "nonpayable",
      "type": "function"
    },
    {
      "inputs": [],
      "name": "name",
      "outputs": [
        {
          "internalType": "string",
          "name": "",
          "type": "string"
        }
      ],
      "stateMutability": "view",
      "type": "function"
    },
    {
      "inputs": [],
      "name": "owner",
      "outputs": [
        {
          "internalType": "address",
          "name": "",
          "type": "address"
        }
      ],
      "stateMutability": "view",
      "type": "function"
    },
    {
      "inputs": [
        {
          "internalType": "uint256",
          "name": "tokenId",
          "type": "uint256"
        }
      ],
      "name": "ownerOf",
      "outputs": [
        {
          "internalType": "address",
          "name": "",
          "type": "address"
        }
      ],
      "stateMutability": "view",
      "type": "function"
    },
    {
      "inputs": [],
      "name": "renounceOwnership",
      "outputs": [],
      "stateMutability": "nonpayable",
      "type": "function"
    },
    {
      "inputs": [
        {
          "internalType": "address",
          "name": "from",
          "type": "address"
        },
        {
          "internalType": "address",
          "name": "to",
          "type": "address"
        },
        {
          "internalType": "uint256",
          "name": "tokenId",
          "type": "uint256"
        }
      ],
      "name": "safeTransferFrom",
      "outputs": [],
      "stateMutability": "nonpayable",
      "type": "function"
    },
    {
      "inputs": [
        {
          "internalType": "address",
          "name": "from",
          "type": "address"
        },
        {
          "internalType": "address",
          "name": "to",
          "type": "address"
        },
        {
          "internalType": "uint256",
          "name": "tokenId",
          "type": "uint256"
        },
        {
          "internalType": "bytes",
          "name": "data",
          "type": "bytes"
        }
      ],
      "name": "safeTransferFrom",
      "outputs": [],
      "stateMutability": "nonpayable",
      "type": "function"
    },
    {
      "inputs": [
        {
          "internalType": "address",
          "name": "operator",
          "type": "address"
        },
        {
          "internalType": "bool",
          "name": "approved",
          "type": "bool"
        }
      ],
      "name": "setApprovalForAll",
      "outputs": [],
      "stateMutability": "nonpayable",
      "type": "function"
    },
    {
      "inputs": [
        {
          "internalType": "address",
          "name": "_marketplaceAddress",
          "type": "address"
        }
      ],
      "name": "setMarketplaceAddress",
      "outputs": [],
      "stateMutability": "nonpayable",
      "type": "function"
    },
    {
      "inputs": [
        {
          "internalType": "bytes4",
          "name": "interfaceId",
          "type": "bytes4"
        }
      ],
      "name": "supportsInterface",
      "outputs": [
        {
          "internalType": "bool",
          "name": "",
          "type": "bool"
        }
      ],
      "stateMutability": "view",
      "type": "function"
    },
    {
      "inputs": [],
      "name": "symbol",
      "outputs": [
        {
          "internalType": "string",
          "name": "",
          "type": "string"
        }
      ],
      "stateMutability": "view",
      "type": "function"
    },
    {
      "inputs": [
        {
          "internalType": "uint256",
          "name": "tokenId",
          "type": "uint256"
        }
      ],
      "name": "tokenURI",
      "outputs": [
        {
          "internalType": "string",
          "name": "",
          "type": "string"
        }
      ],
      "stateMutability": "view",
      "type": "function"
    },
    {
      "inputs": [
        {
          "internalType": "address",
          "name": "from",
          "type": "address"
        },
        {
          "internalType": "address",
          "name": "to",
          "type": "address"
        },
        {
          "internalType": "uint256",
          "name": "tokenId",
          "type": "uint256"
        }
      ],
      "name": "transferFrom",
      "outputs": [],
      "stateMutability": "nonpayable",
      "type": "function"
    },
    {
      "inputs": [
        {
          "internalType": "address",
          "name": "newOwner",
          "type": "address"
        }
      ],
      "name": "transferOwnership",
      "outputs": [],
      "stateMutability": "nonpayable",
      "type": "function"
    }
  ],
  "bytecode": "0x60806040523480156200001157600080fd5b506040518060400160405280600d81526020017f417274436f6c6c656374696f6e000000000000000000000000000000000000008152506040518060400160405280600481526020017f4152544300000000000000000000000000000000000000000000000000000000815250816000908051906020019062000096929190620001a6565b508060019080519060200190620000af929190620001a6565b505050620000d2620000c6620000d860201b60201c565b620000e060201b60201c565b620002bb565b600033905090565b6000600760009054906101000a900473ffffffffffffffffffffffffffffffffffffffff16905081600760006101000a81548173ffffffffffffffffffffffffffffffffffffffff021916908373ffffffffffffffffffffffffffffffffffffffff1602179055508173ffffffffffffffffffffffffffffffffffffffff168173ffffffffffffffffffffffffffffffffffffffff167f8be0079c531659141344cd1fd0a4f28419497f9722a3daafe3b4186f6b6457e060405160405180910390a35050565b828054620001b49062000256565b90600052602060002090601f016020900481019282620001d8576000855562000224565b82601f10620001f357805160ff191683800117855562000224565b8280016001018555821562000224579182015b828111156200022357825182559160200191906001019062000206565b5b50905062000233919062000237565b5090565b5b808211156200025257600081600090555060010162000238565b5090565b600060028204905060018216806200026f57607f821691505b602082108114156200028657620002856200028c565b5b50919050565b7f4e487b7100000000000000000000000000000000000000000000000000000000600052602260045260246000fd5b612ef880620002cb6000396000f3fe608060405234801561001057600080fd5b50600436106101215760003560e01c8063715018a6116100ad578063b88d4fde11610071578063b88d4fde14610306578063c87b56dd14610322578063daa17f4914610352578063e985e9c514610370578063f2fde38b146103a057610121565b8063715018a6146102885780638da5cb5b1461029257806395d89b41146102b0578063a22cb465146102ce578063b47cc556146102ea57610121565b80630a7b7be4116100f45780630a7b7be4146101c057806323b872dd146101f057806342842e0e1461020c5780636352211e1461022857806370a082311461025857610121565b806301ffc9a71461012657806306fdde0314610156578063081812fc14610174578063095ea7b3146101a4575b600080fd5b610140600480360381019061013b9190612229565b6103bc565b60405161014d919061262a565b60405180910390f35b61015e61041d565b60405161016b9190612645565b60405180910390f35b61018e600480360381019061018991906122bc565b6104af565b60405161019b91906125c3565b60405180910390f35b6101be60048036038101906101b991906121ed565b6104f5565b005b6101da60048036038101906101d5919061227b565b61060d565b6040516101e79190612827565b60405180910390f35b61020a600480360381019061020591906120e7565b610703565b005b610226600480360381019061022191906120e7565b610763565b005b610242600480360381019061023d91906122bc565b610783565b60405161024f91906125c3565b60405180910390f35b610272600480360381019061026d9190612082565b61080a565b60405161027f9190612827565b60405180910390f35b6102906108c2565b005b61029a6108d6565b6040516102a791906125c3565b60405180910390f35b6102b8610900565b6040516102c59190612645565b60405180910390f35b6102e860048036038101906102e391906121b1565b610992565b005b61030460048036038101906102ff9190612082565b6109a8565b005b610320600480360381019061031b9190612136565b6109f4565b005b61033c600480360381019061033791906122bc565b610a56565b6040516103499190612645565b60405180910390f35b61035a610b69565b60405161036791906125c3565b60405180910390f35b61038a600480360381019061038591906120ab565b610b8f565b604051610397919061262a565b60405180910390f35b6103ba60048036038101906103b59190612082565b610c23565b005b6000634906490660e01b7bffffffffffffffffffffffffffffffffffffffffffffffffffffffff1916827bffffffffffffffffffffffffffffffffffffffffffffffffffffffff19161480610416575061041582610ca7565b5b9050919050565b60606000805461042c90612a00565b80601f016020809104026020016040519081016040528092919081815260200182805461045890612a00565b80156104a55780601f1061047a576101008083540402835291602001916104a5565b820191906000526020600020905b81548152906001019060200180831161048857829003601f168201915b5050505050905090565b60006104ba82610d89565b6004600083815260200190815260200160002060009054906101000a900473ffffffffffffffffffffffffffffffffffffffff169050919050565b600061050082610783565b90508073ffffffffffffffffffffffffffffffffffffffff168373ffffffffffffffffffffffffffffffffffffffff161415610571576040517f08c379a0000000000000000000000000000000000000000000000000000000008152600401610568906127e7565b60405180910390fd5b8073ffffffffffffffffffffffffffffffffffffffff16610590610dd4565b73ffffffffffffffffffffffffffffffffffffffff1614806105bf57506105be816105b9610dd4565b610b8f565b5b6105fe576040517f08c379a00000000000000000000000000000000000000000000000000000000081526004016105f590612807565b60405180910390fd5b6106088383610ddc565b505050565b60006106196008610e95565b60006106256008610eab565b90506106313382610eb9565b61063b81846110d7565b600073ffffffffffffffffffffffffffffffffffffffff16600960009054906101000a900473ffffffffffffffffffffffffffffffffffffffff1673ffffffffffffffffffffffffffffffffffffffff16146106bf576106be600960009054906101000a900473ffffffffffffffffffffffffffffffffffffffff166001610992565b5b7fa9eee6db348cd85744a0dbd259b75b7a3d51f99785db7ef05829954c2042a0ad8133856040516106f293929190612842565b60405180910390a180915050919050565b61071461070e610dd4565b82611182565b610753576040517f08c379a000000000000000000000000000000000000000000000000000000000815260040161074a90612667565b60405180910390fd5b61075e838383611217565b505050565b61077e838383604051806020016040528060008152506109f4565b505050565b60008061078f83611511565b9050600073ffffffffffffffffffffffffffffffffffffffff168173ffffffffffffffffffffffffffffffffffffffff161415610801576040517f08c379a00000000000000000000000000000000000000000000000000000000081526004016107f8906127c7565b60405180910390fd5b80915050919050565b60008073ffffffffffffffffffffffffffffffffffffffff168273ffffffffffffffffffffffffffffffffffffffff16141561087b576040517f08c379a000000000000000000000000000000000000000000000000000000000815260040161087290612747565b60405180910390fd5b600360008373ffffffffffffffffffffffffffffffffffffffff1673ffffffffffffffffffffffffffffffffffffffff168152602001908152602001600020549050919050565b6108ca61154e565b6108d460006115cc565b565b6000600760009054906101000a900473ffffffffffffffffffffffffffffffffffffffff16905090565b60606001805461090f90612a00565b80601f016020809104026020016040519081016040528092919081815260200182805461093b90612a00565b80156109885780601f1061095d57610100808354040283529160200191610988565b820191906000526020600020905b81548152906001019060200180831161096b57829003601f168201915b5050505050905090565b6109a461099d610dd4565b8383611692565b5050565b6109b061154e565b80600960006101000a81548173ffffffffffffffffffffffffffffffffffffffff021916908373ffffffffffffffffffffffffffffffffffffffff16021790555050565b610a056109ff610dd4565b83611182565b610a44576040517f08c379a0000000000000000000000000000000000000000000000000000000008152600401610a3b90612667565b60405180910390fd5b610a50848484846117ff565b50505050565b6060610a6182610d89565b6000600660008481526020019081526020016000208054610a8190612a00565b80601f0160208091040260200160405190810160405280929190818152602001828054610aad90612a00565b8015610afa5780601f10610acf57610100808354040283529160200191610afa565b820191906000526020600020905b815481529060010190602001808311610add57829003601f168201915b505050505090506000610b0b61185b565b9050600081511415610b21578192505050610b64565b600082511115610b56578082604051602001610b3e92919061259f565b60405160208183030381529060405292505050610b64565b610b5f84611872565b925050505b919050565b600960009054906101000a900473ffffffffffffffffffffffffffffffffffffffff1681565b6000600560008473ffffffffffffffffffffffffffffffffffffffff1673ffffffffffffffffffffffffffffffffffffffff16815260200190815260200160002060008373ffffffffffffffffffffffffffffffffffffffff1673ffffffffffffffffffffffffffffffffffffffff16815260200190815260200160002060009054906101000a900460ff16905092915050565b610c2b61154e565b600073ffffffffffffffffffffffffffffffffffffffff168173ffffffffffffffffffffffffffffffffffffffff161415610c9b576040517f08c379a0000000000000000000000000000000000000000000000000000000008152600401610c92906126a7565b60405180910390fd5b610ca4816115cc565b50565b60007f80ac58cd000000000000000000000000000000000000000000000000000000007bffffffffffffffffffffffffffffffffffffffffffffffffffffffff1916827bffffffffffffffffffffffffffffffffffffffffffffffffffffffff19161480610d7257507f5b5e139f000000000000000000000000000000000000000000000000000000007bffffffffffffffffffffffffffffffffffffffffffffffffffffffff1916827bffffffffffffffffffffffffffffffffffffffffffffffffffffffff1916145b80610d825750610d81826118da565b5b9050919050565b610d9281611944565b610dd1576040517f08c379a0000000000000000000000000000000000000000000000000000000008152600401610dc8906127c7565b60405180910390fd5b50565b600033905090565b816004600083815260200190815260200160002060006101000a81548173ffffffffffffffffffffffffffffffffffffffff021916908373ffffffffffffffffffffffffffffffffffffffff160217905550808273ffffffffffffffffffffffffffffffffffffffff16610e4f83610783565b73ffffffffffffffffffffffffffffffffffffffff167f8c5be1e5ebec7d5bd14f71427d1e84f3dd0314c0f7b2291e5b200ac8c7c3b92560405160405180910390a45050565b6001816000016000828254019250508190555050565b600081600001549050919050565b600073ffffffffffffffffffffffffffffffffffffffff168273ffffffffffffffffffffffffffffffffffffffff161415610f29576040517f08c379a0000000000000000000000000000000000000000000000000000000008152600401610f2090612787565b60405180910390fd5b610f3281611944565b15610f72576040517f08c379a0000000000000000000000000000000000000000000000000000000008152600401610f69906126e7565b60405180910390fd5b610f80600083836001611985565b610f8981611944565b15610fc9576040517f08c379a0000000000000000000000000000000000000000000000000000000008152600401610fc0906126e7565b60405180910390fd5b6001600360008473ffffffffffffffffffffffffffffffffffffffff1673ffffffffffffffffffffffffffffffffffffffff16815260200190815260200160002060008282540192505081905550816002600083815260200190815260200160002060006101000a81548173ffffffffffffffffffffffffffffffffffffffff021916908373ffffffffffffffffffffffffffffffffffffffff160217905550808273ffffffffffffffffffffffffffffffffffffffff16600073ffffffffffffffffffffffffffffffffffffffff167fddf252ad1be2c89b69c2b068fc378daa952ba7f163c4a11628f55a4df523b3ef60405160405180910390a46110d360008383600161198b565b5050565b6110e082611944565b61111f576040517f08c379a000000000000000000000000000000000000000000000000000000000815260040161111690612767565b60405180910390fd5b80600660008481526020019081526020016000209080519060200190611146929190611ea6565b507ff8e1a15aba9398e019f0b49df1a4fde98ee17ae345cb5f6b5e2c27f5033e8ce7826040516111769190612827565b60405180910390a15050565b60008061118e83610783565b90508073ffffffffffffffffffffffffffffffffffffffff168473ffffffffffffffffffffffffffffffffffffffff1614806111d057506111cf8185610b8f565b5b8061120e57508373ffffffffffffffffffffffffffffffffffffffff166111f6846104af565b73ffffffffffffffffffffffffffffffffffffffff16145b91505092915050565b8273ffffffffffffffffffffffffffffffffffffffff1661123782610783565b73ffffffffffffffffffffffffffffffffffffffff161461128d576040517f08c379a0000000000000000000000000000000000000000000000000000000008152600401611284906126c7565b60405180910390fd5b600073ffffffffffffffffffffffffffffffffffffffff168273ffffffffffffffffffffffffffffffffffffffff1614156112fd576040517f08c379a00000000000000000000000000000000000000000000000000000000081526004016112f490612707565b60405180910390fd5b61130a8383836001611985565b8273ffffffffffffffffffffffffffffffffffffffff1661132a82610783565b73ffffffffffffffffffffffffffffffffffffffff1614611380576040517f08c379a0000000000000000000000000000000000000000000000000000000008152600401611377906126c7565b60405180910390fd5b6004600082815260200190815260200160002060006101000a81549073ffffffffffffffffffffffffffffffffffffffff02191690556001600360008573ffffffffffffffffffffffffffffffffffffffff1673ffffffffffffffffffffffffffffffffffffffff168152602001908152602001600020600082825403925050819055506001600360008473ffffffffffffffffffffffffffffffffffffffff1673ffffffffffffffffffffffffffffffffffffffff16815260200190815260200160002060008282540192505081905550816002600083815260200190815260200160002060006101000a81548173ffffffffffffffffffffffffffffffffffffffff021916908373ffffffffffffffffffffffffffffffffffffffff160217905550808273ffffffffffffffffffffffffffffffffffffffff168473ffffffffffffffffffffffffffffffffffffffff167fddf252ad1be2c89b69c2b068fc378daa952ba7f163c4a11628f55a4df523b3ef60405160405180910390a461150c838383600161198b565b505050565b60006002600083815260200190815260200160002060009054906101000a900473ffffffffffffffffffffffffffffffffffffffff169050919050565b611556610dd4565b73ffffffffffffffffffffffffffffffffffffffff166115746108d6565b73ffffffffffffffffffffffffffffffffffffffff16146115ca576040517f08c379a00000000000000000000000000000000000000000000000000000000081526004016115c1906127a7565b60405180910390fd5b565b6000600760009054906101000a900473ffffffffffffffffffffffffffffffffffffffff16905081600760006101000a81548173ffffffffffffffffffffffffffffffffffffffff021916908373ffffffffffffffffffffffffffffffffffffffff1602179055508173ffffffffffffffffffffffffffffffffffffffff168173ffffffffffffffffffffffffffffffffffffffff167f8be0079c531659141344cd1fd0a4f28419497f9722a3daafe3b4186f6b6457e060405160405180910390a35050565b8173ffffffffffffffffffffffffffffffffffffffff168373ffffffffffffffffffffffffffffffffffffffff161415611701576040517f08c379a00000000000000000000000000000000000000000000000000000000081526004016116f890612727565b60405180910390fd5b80600560008573ffffffffffffffffffffffffffffffffffffffff1673ffffffffffffffffffffffffffffffffffffffff16815260200190815260200160002060008473ffffffffffffffffffffffffffffffffffffffff1673ffffffffffffffffffffffffffffffffffffffff16815260200190815260200160002060006101000a81548160ff0219169083151502179055508173ffffffffffffffffffffffffffffffffffffffff168373ffffffffffffffffffffffffffffffffffffffff167f17307eab39ab6107e8899845ad3d59bd9653f200f220920489ca2b5937696c31836040516117f2919061262a565b60405180910390a3505050565b61180a848484611217565b61181684848484611991565b611855576040517f08c379a000000000000000000000000000000000000000000000000000000000815260040161184c90612687565b60405180910390fd5b50505050565b606060405180602001604052806000815250905090565b606061187d82610d89565b600061188761185b565b905060008151116118a757604051806020016040528060008152506118d2565b806118b184611b28565b6040516020016118c292919061259f565b6040516020818303038152906040525b915050919050565b60007f01ffc9a7000000000000000000000000000000000000000000000000000000007bffffffffffffffffffffffffffffffffffffffffffffffffffffffff1916827bffffffffffffffffffffffffffffffffffffffffffffffffffffffff1916149050919050565b60008073ffffffffffffffffffffffffffffffffffffffff1661196683611511565b73ffffffffffffffffffffffffffffffffffffffff1614159050919050565b50505050565b50505050565b60006119b28473ffffffffffffffffffffffffffffffffffffffff16611c4c565b15611b1b578373ffffffffffffffffffffffffffffffffffffffff1663150b7a026119db610dd4565b8786866040518563ffffffff1660e01b81526004016119fd94939291906125de565b602060405180830381600087803b158015611a1757600080fd5b505af1925050508015611a4857506040513d601f19601f82011682018060405250810190611a459190612252565b60015b611acb573d8060008114611a78576040519150601f19603f3d011682016040523d82523d6000602084013e611a7d565b606091505b50600081511415611ac3576040517f08c379a0000000000000000000000000000000000000000000000000000000008152600401611aba90612687565b60405180910390fd5b805181602001fd5b63150b7a0260e01b7bffffffffffffffffffffffffffffffffffffffffffffffffffffffff1916817bffffffffffffffffffffffffffffffffffffffffffffffffffffffff191614915050611b20565b600190505b949350505050565b606060006001611b3784611c6f565b01905060008167ffffffffffffffff811115611b7c577f4e487b7100000000000000000000000000000000000000000000000000000000600052604160045260246000fd5b6040519080825280601f01601f191660200182016040528015611bae5781602001600182028036833780820191505090505b509050600082602001820190505b600115611c41578080600190039150507f3031323334353637383961626364656600000000000000000000000000000000600a86061a8153600a8581611c2b577f4e487b7100000000000000000000000000000000000000000000000000000000600052601260045260246000fd5b0494506000851415611c3c57611c41565b611bbc565b819350505050919050565b6000808273ffffffffffffffffffffffffffffffffffffffff163b119050919050565b600080600090507a184f03e93ff9f4daa797ed6e38ed64bf6a1f0100000000000000008310611cf3577a184f03e93ff9f4daa797ed6e38ed64bf6a1f0100000000000000008381611ce9577f4e487b7100000000000000000000000000000000000000000000000000000000600052601260045260246000fd5b0492506040810190505b6d04ee2d6d415b85acef81000000008310611d56576d04ee2d6d415b85acef81000000008381611d4c577f4e487b7100000000000000000000000000000000000000000000000000000000600052601260045260246000fd5b0492506020810190505b662386f26fc100008310611dab57662386f26fc100008381611da1577f4e487b7100000000000000000000000000000000000000000000000000000000600052601260045260246000fd5b0492506010810190505b6305f5e1008310611dfa576305f5e1008381611df0577f4e487b7100000000000000000000000000000000000000000000000000000000600052601260045260246000fd5b0492506008810190505b6127108310611e45576127108381611e3b577f4e487b7100000000000000000000000000000000000000000000000000000000600052601260045260246000fd5b0492506004810190505b60648310611e8e5760648381611e84577f4e487b7100000000000000000000000000000000000000000000000000000000600052601260045260246000fd5b0492506002810190505b600a8310611e9d576001810190505b80915050919050565b828054611eb290612a00565b90600052602060002090601f016020900481019282611ed45760008555611f1b565b82601f10611eed57805160ff1916838001178555611f1b565b82800160010185558215611f1b579182015b82811115611f1a578251825591602001919060010190611eff565b5b509050611f289190611f2c565b5090565b5b80821115611f45576000816000905550600101611f2d565b5090565b6000611f5c611f57846128a5565b612880565b905082815260208101848484011115611f7457600080fd5b611f7f8482856129be565b509392505050565b6000611f9a611f95846128d6565b612880565b905082815260208101848484011115611fb257600080fd5b611fbd8482856129be565b509392505050565b600081359050611fd481612e66565b92915050565b600081359050611fe981612e7d565b92915050565b600081359050611ffe81612e94565b92915050565b60008151905061201381612e94565b92915050565b600082601f83011261202a57600080fd5b813561203a848260208601611f49565b91505092915050565b600082601f83011261205457600080fd5b8135612064848260208601611f87565b91505092915050565b60008135905061207c81612eab565b92915050565b60006020828403121561209457600080fd5b60006120a284828501611fc5565b91505092915050565b600080604083850312156120be57600080fd5b60006120cc85828601611fc5565b92505060206120dd85828601611fc5565b9150509250929050565b6000806000606084860312156120fc57600080fd5b600061210a86828701611fc5565b935050602061211b86828701611fc5565b925050604061212c8682870161206d565b9150509250925092565b6000806000806080858703121561214c57600080fd5b600061215a87828801611fc5565b945050602061216b87828801611fc5565b935050604061217c8782880161206d565b925050606085013567ffffffffffffffff81111561219957600080fd5b6121a587828801612019565b91505092959194509250565b600080604083850312156121c457600080fd5b60006121d285828601611fc5565b92505060206121e385828601611fda565b9150509250929050565b6000806040838503121561220057600080fd5b600061220e85828601611fc5565b925050602061221f8582860161206d565b9150509250929050565b60006020828403121561223b57600080fd5b600061224984828501611fef565b91505092915050565b60006020828403121561226457600080fd5b600061227284828501612004565b91505092915050565b60006020828403121561228d57600080fd5b600082013567ffffffffffffffff8111156122a757600080fd5b6122b384828501612043565b91505092915050565b6000602082840312156122ce57600080fd5b60006122dc8482850161206d565b91505092915050565b6122ee8161294a565b82525050565b6122fd8161295c565b82525050565b600061230e82612907565b612318818561291d565b93506123288185602086016129cd565b61233181612ac1565b840191505092915050565b600061234782612912565b612351818561292e565b93506123618185602086016129cd565b61236a81612ac1565b840191505092915050565b600061238082612912565b61238a818561293f565b935061239a8185602086016129cd565b80840191505092915050565b60006123b3602d8361292e565b91506123be82612ad2565b604082019050919050565b60006123d660328361292e565b91506123e182612b21565b604082019050919050565b60006123f960268361292e565b915061240482612b70565b604082019050919050565b600061241c60258361292e565b915061242782612bbf565b604082019050919050565b600061243f601c8361292e565b915061244a82612c0e565b602082019050919050565b600061246260248361292e565b915061246d82612c37565b604082019050919050565b600061248560198361292e565b915061249082612c86565b602082019050919050565b60006124a860298361292e565b91506124b382612caf565b604082019050919050565b60006124cb602e8361292e565b91506124d682612cfe565b604082019050919050565b60006124ee60208361292e565b91506124f982612d4d565b602082019050919050565b600061251160208361292e565b915061251c82612d76565b602082019050919050565b600061253460188361292e565b915061253f82612d9f565b602082019050919050565b600061255760218361292e565b915061256282612dc8565b604082019050919050565b600061257a603d8361292e565b915061258582612e17565b604082019050919050565b612599816129b4565b82525050565b60006125ab8285612375565b91506125b78284612375565b91508190509392505050565b60006020820190506125d860008301846122e5565b92915050565b60006080820190506125f360008301876122e5565b61260060208301866122e5565b61260d6040830185612590565b818103606083015261261f8184612303565b905095945050505050565b600060208201905061263f60008301846122f4565b92915050565b6000602082019050818103600083015261265f818461233c565b905092915050565b60006020820190508181036000830152612680816123a6565b9050919050565b600060208201905081810360008301526126a0816123c9565b9050919050565b600060208201905081810360008301526126c0816123ec565b9050919050565b600060208201905081810360008301526126e08161240f565b9050919050565b6000602082019050818103600083015261270081612432565b9050919050565b6000602082019050818103600083015261272081612455565b9050919050565b6000602082019050818103600083015261274081612478565b9050919050565b600060208201905081810360008301526127608161249b565b9050919050565b60006020820190508181036000830152612780816124be565b9050919050565b600060208201905081810360008301526127a0816124e1565b9050919050565b600060208201905081810360008301526127c081612504565b9050919050565b600060208201905081810360008301526127e081612527565b9050919050565b600060208201905081810360008301526128008161254a565b9050919050565b600060208201905081810360008301526128208161256d565b9050919050565b600060208201905061283c6000830184612590565b92915050565b60006060820190506128576000830186612590565b61286460208301856122e5565b8181036040830152612876818461233c565b9050949350505050565b600061288a61289b565b90506128968282612a32565b919050565b6000604051905090565b600067ffffffffffffffff8211156128c0576128bf612a92565b5b6128c982612ac1565b9050602081019050919050565b600067ffffffffffffffff8211156128f1576128f0612a92565b5b6128fa82612ac1565b9050602081019050919050565b600081519050919050565b600081519050919050565b600082825260208201905092915050565b600082825260208201905092915050565b600081905092915050565b600061295582612994565b9050919050565b60008115159050919050565b60007fffffffff0000000000000000000000000000000000000000000000000000000082169050919050565b600073ffffffffffffffffffffffffffffffffffffffff82169050919050565b6000819050919050565b82818337600083830152505050565b60005b838110156129eb5780820151818401526020810190506129d0565b838111156129fa576000848401525b50505050565b60006002820490506001821680612a1857607f821691505b60208210811415612a2c57612a2b612a63565b5b50919050565b612a3b82612ac1565b810181811067ffffffffffffffff82111715612a5a57612a59612a92565b5b80604052505050565b7f4e487b7100000000000000000000000000000000000000000000000000000000600052602260045260246000fd5b7f4e487b7100000000000000000000000000000000000000000000000000000000600052604160045260246000fd5b6000601f19601f8301169050919050565b7f4552433732313a2063616c6c6572206973206e6f7420746f6b656e206f776e6560008201527f72206f7220617070726f76656400000000000000000000000000000000000000602082015250565b7f4552433732313a207472616e7366657220746f206e6f6e20455243373231526560008201527f63656976657220696d706c656d656e7465720000000000000000000000000000602082015250565b7f4f776e61626c653a206e6577206f776e657220697320746865207a65726f206160008201527f6464726573730000000000000000000000000000000000000000000000000000602082015250565b7f4552433732313a207472616e736665722066726f6d20696e636f72726563742060008201527f6f776e6572000000000000000000000000000000000000000000000000000000602082015250565b7f4552433732313a20746f6b656e20616c7265616479206d696e74656400000000600082015250565b7f4552433732313a207472616e7366657220746f20746865207a65726f2061646460008201527f7265737300000000000000000000000000000000000000000000000000000000602082015250565b7f4552433732313a20617070726f766520746f2063616c6c657200000000000000600082015250565b7f4552433732313a2061646472657373207a65726f206973206e6f74206120766160008201527f6c6964206f776e65720000000000000000000000000000000000000000000000602082015250565b7f45524337323155524953746f726167653a2055524920736574206f66206e6f6e60008201527f6578697374656e7420746f6b656e000000000000000000000000000000000000602082015250565b7f4552433732313a206d696e7420746f20746865207a65726f2061646472657373600082015250565b7f4f776e61626c653a2063616c6c6572206973206e6f7420746865206f776e6572600082015250565b7f4552433732313a20696e76616c696420746f6b656e2049440000000000000000600082015250565b7f4552433732313a20617070726f76616c20746f2063757272656e74206f776e6560008201527f7200000000000000000000000000000000000000000000000000000000000000602082015250565b7f4552433732313a20617070726f76652063616c6c6572206973206e6f7420746f60008201527f6b656e206f776e6572206f7220617070726f76656420666f7220616c6c000000602082015250565b612e6f8161294a565b8114612e7a57600080fd5b50565b612e868161295c565b8114612e9157600080fd5b50565b612e9d81612968565b8114612ea857600080fd5b50565b612eb4816129b4565b8114612ebf57600080fd5b5056fea26469706673582212209a12bf211f22e47f1d2b18d93ea9b34a1322e4cd53de84c5de2963b67d6485f864736f6c63430008040033",
  "linkReferences": {},
  "deployedLinkReferences": {}
}